{
  "_format": "hh-sol-artifact-1",
  "contractName": "OpenAcres",
  "sourceName": "contracts/OpenAcres.sol",
  "abi": [
    {
      "inputs": [],
      "stateMutability": "nonpayable",
      "type": "constructor"
    },
    {
      "inputs": [],
      "name": "AccessControlBadConfirmation",
      "type": "error"
    },
    {
      "inputs": [
        {
          "internalType": "address",
          "name": "account",
          "type": "address"
        },
        {
          "internalType": "bytes32",
          "name": "neededRole",
          "type": "bytes32"
        }
      ],
      "name": "AccessControlUnauthorizedAccount",
      "type": "error"
    },
    {
      "inputs": [
        {
          "internalType": "address",
          "name": "sender",
          "type": "address"
        },
        {
          "internalType": "uint256",
          "name": "tokenId",
          "type": "uint256"
        },
        {
          "internalType": "address",
          "name": "owner",
          "type": "address"
        }
      ],
      "name": "ERC721IncorrectOwner",
      "type": "error"
    },
    {
      "inputs": [
        {
          "internalType": "address",
          "name": "operator",
          "type": "address"
        },
        {
          "internalType": "uint256",
          "name": "tokenId",
          "type": "uint256"
        }
      ],
      "name": "ERC721InsufficientApproval",
      "type": "error"
    },
    {
      "inputs": [
        {
          "internalType": "address",
          "name": "approver",
          "type": "address"
        }
      ],
      "name": "ERC721InvalidApprover",
      "type": "error"
    },
    {
      "inputs": [
        {
          "internalType": "address",
          "name": "operator",
          "type": "address"
        }
      ],
      "name": "ERC721InvalidOperator",
      "type": "error"
    },
    {
      "inputs": [
        {
          "internalType": "address",
          "name": "owner",
          "type": "address"
        }
      ],
      "name": "ERC721InvalidOwner",
      "type": "error"
    },
    {
      "inputs": [
        {
          "internalType": "address",
          "name": "receiver",
          "type": "address"
        }
      ],
      "name": "ERC721InvalidReceiver",
      "type": "error"
    },
    {
      "inputs": [
        {
          "internalType": "address",
          "name": "sender",
          "type": "address"
        }
      ],
      "name": "ERC721InvalidSender",
      "type": "error"
    },
    {
      "inputs": [
        {
          "internalType": "uint256",
          "name": "tokenId",
          "type": "uint256"
        }
      ],
      "name": "ERC721NonexistentToken",
      "type": "error"
    },
    {
      "anonymous": false,
      "inputs": [
        {
          "indexed": true,
          "internalType": "address",
          "name": "owner",
          "type": "address"
        },
        {
          "indexed": true,
          "internalType": "address",
          "name": "approved",
          "type": "address"
        },
        {
          "indexed": true,
          "internalType": "uint256",
          "name": "tokenId",
          "type": "uint256"
        }
      ],
      "name": "Approval",
      "type": "event"
    },
    {
      "anonymous": false,
      "inputs": [
        {
          "indexed": true,
          "internalType": "address",
          "name": "owner",
          "type": "address"
        },
        {
          "indexed": true,
          "internalType": "address",
          "name": "operator",
          "type": "address"
        },
        {
          "indexed": false,
          "internalType": "bool",
          "name": "approved",
          "type": "bool"
        }
      ],
      "name": "ApprovalForAll",
      "type": "event"
    },
    {
      "anonymous": false,
      "inputs": [
        {
          "indexed": false,
          "internalType": "uint256",
          "name": "_fromTokenId",
          "type": "uint256"
        },
        {
          "indexed": false,
          "internalType": "uint256",
          "name": "_toTokenId",
          "type": "uint256"
        }
      ],
      "name": "BatchMetadataUpdate",
      "type": "event"
    },
    {
      "anonymous": false,
      "inputs": [
        {
          "indexed": true,
          "internalType": "uint256",
          "name": "tokenId",
          "type": "uint256"
        },
        {
          "indexed": false,
          "internalType": "bool",
          "name": "hasDispute",
          "type": "bool"
        },
        {
          "indexed": false,
          "internalType": "string",
          "name": "details",
          "type": "string"
        }
      ],
      "name": "DisputeStatusUpdated",
      "type": "event"
    },
    {
      "anonymous": false,
      "inputs": [
        {
          "indexed": true,
          "internalType": "address",
          "name": "to",
          "type": "address"
        },
        {
          "indexed": true,
          "internalType": "uint256",
          "name": "tokenId",
          "type": "uint256"
        },
        {
          "indexed": false,
          "internalType": "string",
          "name": "surveyNumber",
          "type": "string"
        }
      ],
      "name": "LandMinted",
      "type": "event"
    },
    {
      "anonymous": false,
      "inputs": [
        {
          "indexed": true,
          "internalType": "address",
          "name": "from",
          "type": "address"
        },
        {
          "indexed": true,
          "internalType": "address",
          "name": "to",
          "type": "address"
        },
        {
          "indexed": true,
          "internalType": "uint256",
          "name": "tokenId",
          "type": "uint256"
        }
      ],
      "name": "LandTransferred",
      "type": "event"
    },
    {
      "anonymous": false,
      "inputs": [
        {
          "indexed": true,
          "internalType": "uint256",
          "name": "tokenId",
          "type": "uint256"
        },
        {
          "indexed": false,
          "internalType": "uint256",
          "name": "oldValue",
          "type": "uint256"
        },
        {
          "indexed": false,
          "internalType": "uint256",
          "name": "newValue",
          "type": "uint256"
        },
        {
          "indexed": false,
          "internalType": "uint256",
          "name": "timestamp",
          "type": "uint256"
        }
      ],
      "name": "MarketValueUpdated",
      "type": "event"
    },
    {
      "anonymous": false,
      "inputs": [
        {
          "indexed": false,
          "internalType": "uint256",
          "name": "_tokenId",
          "type": "uint256"
        }
      ],
      "name": "MetadataUpdate",
      "type": "event"
    },
    {
      "anonymous": false,
      "inputs": [
        {
          "indexed": true,
          "internalType": "bytes32",
          "name": "role",
          "type": "bytes32"
        },
        {
          "indexed": true,
          "internalType": "bytes32",
          "name": "previousAdminRole",
          "type": "bytes32"
        },
        {
          "indexed": true,
          "internalType": "bytes32",
          "name": "newAdminRole",
          "type": "bytes32"
        }
      ],
      "name": "RoleAdminChanged",
      "type": "event"
    },
    {
      "anonymous": false,
      "inputs": [
        {
          "indexed": true,
          "internalType": "bytes32",
          "name": "role",
          "type": "bytes32"
        },
        {
          "indexed": true,
          "internalType": "address",
          "name": "account",
          "type": "address"
        },
        {
          "indexed": true,
          "internalType": "address",
          "name": "sender",
          "type": "address"
        }
      ],
      "name": "RoleGranted",
      "type": "event"
    },
    {
      "anonymous": false,
      "inputs": [
        {
          "indexed": true,
          "internalType": "bytes32",
          "name": "role",
          "type": "bytes32"
        },
        {
          "indexed": true,
          "internalType": "address",
          "name": "account",
          "type": "address"
        },
        {
          "indexed": true,
          "internalType": "address",
          "name": "sender",
          "type": "address"
        }
      ],
      "name": "RoleRevoked",
      "type": "event"
    },
    {
      "anonymous": false,
      "inputs": [
        {
          "indexed": true,
          "internalType": "address",
          "name": "from",
          "type": "address"
        },
        {
          "indexed": true,
          "internalType": "address",
          "name": "to",
          "type": "address"
        },
        {
          "indexed": true,
          "internalType": "uint256",
          "name": "tokenId",
          "type": "uint256"
        }
      ],
      "name": "Transfer",
      "type": "event"
    },
    {
      "inputs": [],
      "name": "AUTHORITY_ROLE",
      "outputs": [
        {
          "internalType": "bytes32",
          "name": "",
          "type": "bytes32"
        }
      ],
      "stateMutability": "view",
      "type": "function"
    },
    {
      "inputs": [],
      "name": "DEFAULT_ADMIN_ROLE",
      "outputs": [
        {
          "internalType": "bytes32",
          "name": "",
          "type": "bytes32"
        }
      ],
      "stateMutability": "view",
      "type": "function"
    },
    {
      "inputs": [],
      "name": "MAX_AREA",
      "outputs": [
        {
          "internalType": "uint256",
          "name": "",
          "type": "uint256"
        }
      ],
      "stateMutability": "view",
      "type": "function"
    },
    {
      "inputs": [],
      "name": "MIN_AREA",
      "outputs": [
        {
          "internalType": "uint256",
          "name": "",
          "type": "uint256"
        }
      ],
      "stateMutability": "view",
      "type": "function"
    },
    {
      "inputs": [
        {
          "internalType": "address",
          "name": "to",
          "type": "address"
        },
        {
          "internalType": "uint256",
          "name": "tokenId",
          "type": "uint256"
        }
      ],
      "name": "approve",
      "outputs": [],
      "stateMutability": "nonpayable",
      "type": "function"
    },
    {
      "inputs": [
        {
          "internalType": "address",
          "name": "owner",
          "type": "address"
        }
      ],
      "name": "balanceOf",
      "outputs": [
        {
          "internalType": "uint256",
          "name": "",
          "type": "uint256"
        }
      ],
      "stateMutability": "view",
      "type": "function"
    },
    {
      "inputs": [
        {
          "components": [
            {
              "internalType": "address",
              "name": "recipient",
              "type": "address"
            },
            {
              "internalType": "string",
              "name": "location",
              "type": "string"
            },
            {
              "internalType": "string",
              "name": "surveyNumber",
              "type": "string"
            },
            {
              "internalType": "uint256",
              "name": "area",
              "type": "uint256"
            },
            {
              "internalType": "string",
              "name": "propertyType",
              "type": "string"
            },
            {
              "internalType": "uint256",
              "name": "marketValue",
              "type": "uint256"
            }
          ],
          "internalType": "struct OpenAcres.BatchMintParams[]",
          "name": "params",
          "type": "tuple[]"
        }
      ],
      "name": "batchMintLand",
      "outputs": [
        {
          "internalType": "uint256[]",
          "name": "",
          "type": "uint256[]"
        }
      ],
      "stateMutability": "nonpayable",
      "type": "function"
    },
    {
      "inputs": [
        {
          "internalType": "address[]",
          "name": "froms",
          "type": "address[]"
        },
        {
          "internalType": "address[]",
          "name": "tos",
          "type": "address[]"
        },
        {
          "internalType": "uint256[]",
          "name": "tokenIds",
          "type": "uint256[]"
        }
      ],
      "name": "batchTransferLand",
      "outputs": [],
      "stateMutability": "nonpayable",
      "type": "function"
    },
    {
      "inputs": [
        {
          "internalType": "uint256[]",
          "name": "tokenIds",
          "type": "uint256[]"
        },
        {
          "internalType": "uint256[]",
          "name": "newValues",
          "type": "uint256[]"
        }
      ],
      "name": "batchUpdateMarketValue",
      "outputs": [],
      "stateMutability": "nonpayable",
      "type": "function"
    },
    {
      "inputs": [
        {
          "internalType": "uint256",
          "name": "tokenId",
          "type": "uint256"
        }
      ],
      "name": "getApproved",
      "outputs": [
        {
          "internalType": "address",
          "name": "",
          "type": "address"
        }
      ],
      "stateMutability": "view",
      "type": "function"
    },
    {
      "inputs": [
        {
          "internalType": "uint256",
          "name": "tokenId",
          "type": "uint256"
        }
      ],
      "name": "getCurrentMarketValue",
      "outputs": [
        {
          "internalType": "uint256",
          "name": "",
          "type": "uint256"
        }
      ],
      "stateMutability": "view",
      "type": "function"
    },
    {
      "inputs": [
        {
          "internalType": "uint256",
          "name": "tokenId",
          "type": "uint256"
        }
      ],
      "name": "getLandParcel",
      "outputs": [
        {
          "components": [
            {
              "internalType": "string",
              "name": "location",
              "type": "string"
            },
            {
              "internalType": "string",
              "name": "surveyNumber",
              "type": "string"
            },
            {
              "internalType": "uint256",
              "name": "area",
              "type": "uint256"
            },
            {
              "internalType": "string",
              "name": "propertyType",
              "type": "string"
            },
            {
              "internalType": "uint256",
              "name": "marketValue",
              "type": "uint256"
            },
            {
              "internalType": "bool",
              "name": "hasDispute",
              "type": "bool"
            },
            {
              "internalType": "string",
              "name": "disputeDetails",
              "type": "string"
            },
            {
              "internalType": "uint256",
              "name": "lastTransferDate",
              "type": "uint256"
            },
            {
              "internalType": "string",
              "name": "ownershipHistory",
              "type": "string"
            },
            {
              "internalType": "string",
              "name": "valueHistory",
              "type": "string"
            }
          ],
          "internalType": "struct OpenAcres.LandParcel",
          "name": "",
          "type": "tuple"
        }
      ],
      "stateMutability": "view",
      "type": "function"
    },
    {
      "inputs": [
        {
          "internalType": "uint256",
          "name": "tokenId",
          "type": "uint256"
        }
      ],
      "name": "getOwnershipHistory",
      "outputs": [
        {
          "internalType": "string",
          "name": "",
          "type": "string"
        }
      ],
      "stateMutability": "view",
      "type": "function"
    },
    {
      "inputs": [
        {
          "internalType": "bytes32",
          "name": "role",
          "type": "bytes32"
        }
      ],
      "name": "getRoleAdmin",
      "outputs": [
        {
          "internalType": "bytes32",
          "name": "",
          "type": "bytes32"
        }
      ],
      "stateMutability": "view",
      "type": "function"
    },
    {
      "inputs": [],
      "name": "getTokenIdCounter",
      "outputs": [
        {
          "internalType": "uint256",
          "name": "",
          "type": "uint256"
        }
      ],
      "stateMutability": "view",
      "type": "function"
    },
    {
      "inputs": [],
      "name": "getTotalLands",
      "outputs": [
        {
          "internalType": "uint256",
          "name": "",
          "type": "uint256"
        }
      ],
      "stateMutability": "view",
      "type": "function"
    },
    {
      "inputs": [
        {
          "internalType": "uint256",
          "name": "tokenId",
          "type": "uint256"
        }
      ],
      "name": "getValueHistory",
      "outputs": [
        {
          "internalType": "string",
          "name": "",
          "type": "string"
        }
      ],
      "stateMutability": "view",
      "type": "function"
    },
    {
      "inputs": [
        {
          "internalType": "bytes32",
          "name": "role",
          "type": "bytes32"
        },
        {
          "internalType": "address",
          "name": "account",
          "type": "address"
        }
      ],
      "name": "grantRole",
      "outputs": [],
      "stateMutability": "nonpayable",
      "type": "function"
    },
    {
      "inputs": [
        {
          "internalType": "uint256",
          "name": "tokenId",
          "type": "uint256"
        }
      ],
      "name": "hasActiveDispute",
      "outputs": [
        {
          "internalType": "bool",
          "name": "",
          "type": "bool"
        }
      ],
      "stateMutability": "view",
      "type": "function"
    },
    {
      "inputs": [
        {
          "internalType": "bytes32",
          "name": "role",
          "type": "bytes32"
        },
        {
          "internalType": "address",
          "name": "account",
          "type": "address"
        }
      ],
      "name": "hasRole",
      "outputs": [
        {
          "internalType": "bool",
          "name": "",
          "type": "bool"
        }
      ],
      "stateMutability": "view",
      "type": "function"
    },
    {
      "inputs": [
        {
          "internalType": "address",
          "name": "owner",
          "type": "address"
        },
        {
          "internalType": "address",
          "name": "operator",
          "type": "address"
        }
      ],
      "name": "isApprovedForAll",
      "outputs": [
        {
          "internalType": "bool",
          "name": "",
          "type": "bool"
        }
      ],
      "stateMutability": "view",
      "type": "function"
    },
    {
      "inputs": [
        {
          "internalType": "uint256",
          "name": "",
          "type": "uint256"
        }
      ],
      "name": "landParcels",
      "outputs": [
        {
          "internalType": "string",
          "name": "location",
          "type": "string"
        },
        {
          "internalType": "string",
          "name": "surveyNumber",
          "type": "string"
        },
        {
          "internalType": "uint256",
          "name": "area",
          "type": "uint256"
        },
        {
          "internalType": "string",
          "name": "propertyType",
          "type": "string"
        },
        {
          "internalType": "uint256",
          "name": "marketValue",
          "type": "uint256"
        },
        {
          "internalType": "bool",
          "name": "hasDispute",
          "type": "bool"
        },
        {
          "internalType": "string",
          "name": "disputeDetails",
          "type": "string"
        },
        {
          "internalType": "uint256",
          "name": "lastTransferDate",
          "type": "uint256"
        },
        {
          "internalType": "string",
          "name": "ownershipHistory",
          "type": "string"
        },
        {
          "internalType": "string",
          "name": "valueHistory",
          "type": "string"
        }
      ],
      "stateMutability": "view",
      "type": "function"
    },
    {
      "inputs": [
        {
          "internalType": "address",
          "name": "to",
          "type": "address"
        },
        {
          "internalType": "string",
          "name": "location",
          "type": "string"
        },
        {
          "internalType": "string",
          "name": "surveyNumber",
          "type": "string"
        },
        {
          "internalType": "uint256",
          "name": "area",
          "type": "uint256"
        },
        {
          "internalType": "string",
          "name": "propertyType",
          "type": "string"
        },
        {
          "internalType": "uint256",
          "name": "marketValue",
          "type": "uint256"
        }
      ],
      "name": "mintLand",
      "outputs": [
        {
          "internalType": "uint256",
          "name": "",
          "type": "uint256"
        }
      ],
      "stateMutability": "nonpayable",
      "type": "function"
    },
    {
      "inputs": [],
      "name": "name",
      "outputs": [
        {
          "internalType": "string",
          "name": "",
          "type": "string"
        }
      ],
      "stateMutability": "view",
      "type": "function"
    },
    {
      "inputs": [
        {
          "internalType": "uint256",
          "name": "tokenId",
          "type": "uint256"
        }
      ],
      "name": "ownerOf",
      "outputs": [
        {
          "internalType": "address",
          "name": "",
          "type": "address"
        }
      ],
      "stateMutability": "view",
      "type": "function"
    },
    {
      "inputs": [
        {
          "internalType": "bytes32",
          "name": "role",
          "type": "bytes32"
        },
        {
          "internalType": "address",
          "name": "callerConfirmation",
          "type": "address"
        }
      ],
      "name": "renounceRole",
      "outputs": [],
      "stateMutability": "nonpayable",
      "type": "function"
    },
    {
      "inputs": [
        {
          "internalType": "bytes32",
          "name": "role",
          "type": "bytes32"
        },
        {
          "internalType": "address",
          "name": "account",
          "type": "address"
        }
      ],
      "name": "revokeRole",
      "outputs": [],
      "stateMutability": "nonpayable",
      "type": "function"
    },
    {
      "inputs": [
        {
          "internalType": "address",
          "name": "from",
          "type": "address"
        },
        {
          "internalType": "address",
          "name": "to",
          "type": "address"
        },
        {
          "internalType": "uint256",
          "name": "tokenId",
          "type": "uint256"
        }
      ],
      "name": "safeTransferFrom",
      "outputs": [],
      "stateMutability": "nonpayable",
      "type": "function"
    },
    {
      "inputs": [
        {
          "internalType": "address",
          "name": "from",
          "type": "address"
        },
        {
          "internalType": "address",
          "name": "to",
          "type": "address"
        },
        {
          "internalType": "uint256",
          "name": "tokenId",
          "type": "uint256"
        },
        {
          "internalType": "bytes",
          "name": "data",
          "type": "bytes"
        }
      ],
      "name": "safeTransferFrom",
      "outputs": [],
      "stateMutability": "nonpayable",
      "type": "function"
    },
    {
      "inputs": [
        {
          "internalType": "address",
          "name": "operator",
          "type": "address"
        },
        {
          "internalType": "bool",
          "name": "approved",
          "type": "bool"
        }
      ],
      "name": "setApprovalForAll",
      "outputs": [],
      "stateMutability": "nonpayable",
      "type": "function"
    },
    {
      "inputs": [
        {
          "internalType": "bytes4",
          "name": "interfaceId",
          "type": "bytes4"
        }
      ],
      "name": "supportsInterface",
      "outputs": [
        {
          "internalType": "bool",
          "name": "",
          "type": "bool"
        }
      ],
      "stateMutability": "view",
      "type": "function"
    },
    {
      "inputs": [],
      "name": "symbol",
      "outputs": [
        {
          "internalType": "string",
          "name": "",
          "type": "string"
        }
      ],
      "stateMutability": "view",
      "type": "function"
    },
    {
      "inputs": [
        {
          "internalType": "uint256",
          "name": "tokenId",
          "type": "uint256"
        }
      ],
      "name": "tokenURI",
      "outputs": [
        {
          "internalType": "string",
          "name": "",
          "type": "string"
        }
      ],
      "stateMutability": "view",
      "type": "function"
    },
    {
      "inputs": [
        {
          "internalType": "address",
          "name": "from",
          "type": "address"
        },
        {
          "internalType": "address",
          "name": "to",
          "type": "address"
        },
        {
          "internalType": "uint256",
          "name": "tokenId",
          "type": "uint256"
        }
      ],
      "name": "transferFrom",
      "outputs": [],
      "stateMutability": "nonpayable",
      "type": "function"
    },
    {
      "inputs": [
        {
          "internalType": "address",
          "name": "from",
          "type": "address"
        },
        {
          "internalType": "address",
          "name": "to",
          "type": "address"
        },
        {
          "internalType": "uint256",
          "name": "tokenId",
          "type": "uint256"
        }
      ],
      "name": "transferLand",
      "outputs": [],
      "stateMutability": "nonpayable",
      "type": "function"
    },
    {
      "inputs": [
        {
          "internalType": "uint256",
          "name": "tokenId",
          "type": "uint256"
        },
        {
          "internalType": "bool",
          "name": "hasDispute",
          "type": "bool"
        },
        {
          "internalType": "string",
          "name": "details",
          "type": "string"
        }
      ],
      "name": "updateDisputeStatus",
      "outputs": [],
      "stateMutability": "nonpayable",
      "type": "function"
    },
    {
      "inputs": [
        {
          "internalType": "uint256",
          "name": "tokenId",
          "type": "uint256"
        },
        {
          "internalType": "uint256",
          "name": "newValue",
          "type": "uint256"
        }
      ],
      "name": "updateMarketValue",
      "outputs": [],
      "stateMutability": "nonpayable",
      "type": "function"
    }
  ],
  "bytecode": "0x608060405234801561001057600080fd5b506040518060400160405280600981526020017f4f70656e416372657300000000000000000000000000000000000000000000008152506040518060400160405280600481526020017f4c414e4400000000000000000000000000000000000000000000000000000000815250816000908161008c91906104aa565b50806001908161009c91906104aa565b5050506100b26000801b336100e960201b60201c565b506100e37fd565e3fc066df348a5cbc05a8d6323e00552838041cea2d84cc59876ba37735d336100e960201b60201c565b5061057c565b60006100fb83836101e760201b60201c565b6101dc5760016007600085815260200190815260200160002060000160008473ffffffffffffffffffffffffffffffffffffffff1673ffffffffffffffffffffffffffffffffffffffff16815260200190815260200160002060006101000a81548160ff02191690831515021790555061017961025260201b60201c565b73ffffffffffffffffffffffffffffffffffffffff168273ffffffffffffffffffffffffffffffffffffffff16847f2f8788117e7eff1d82e926ec794901d17c78024a50270940304540a733656f0d60405160405180910390a4600190506101e1565b600090505b92915050565b60006007600084815260200190815260200160002060000160008373ffffffffffffffffffffffffffffffffffffffff1673ffffffffffffffffffffffffffffffffffffffff16815260200190815260200160002060009054906101000a900460ff16905092915050565b600033905090565b600081519050919050565b7f4e487b7100000000000000000000000000000000000000000000000000000000600052604160045260246000fd5b7f4e487b7100000000000000000000000000000000000000000000000000000000600052602260045260246000fd5b600060028204905060018216806102db57607f821691505b6020821081036102ee576102ed610294565b5b50919050565b60008190508160005260206000209050919050565b60006020601f8301049050919050565b600082821b905092915050565b6000600883026103567fffffffffffffffffffffffffffffffffffffffffffffffffffffffffffffffff82610319565b6103608683610319565b95508019841693508086168417925050509392505050565b6000819050919050565b6000819050919050565b60006103a76103a261039d84610378565b610382565b610378565b9050919050565b6000819050919050565b6103c18361038c565b6103d56103cd826103ae565b848454610326565b825550505050565b600090565b6103ea6103dd565b6103f58184846103b8565b505050565b5b818110156104195761040e6000826103e2565b6001810190506103fb565b5050565b601f82111561045e5761042f816102f4565b61043884610309565b81016020851015610447578190505b61045b61045385610309565b8301826103fa565b50505b505050565b600082821c905092915050565b600061048160001984600802610463565b1980831691505092915050565b600061049a8383610470565b9150826002028217905092915050565b6104b38261025a565b67ffffffffffffffff8111156104cc576104cb610265565b5b6104d682546102c3565b6104e182828561041d565b600060209050601f8311600181146105145760008415610502578287015190505b61050c858261048e565b865550610574565b601f198416610522866102f4565b60005b8281101561054a57848901518255600182019150602085019450602081019050610525565b868310156105675784890151610563601f891682610470565b8355505b6001600288020188555050505b505050505050565b615ef18061058b6000396000f3fe608060405234801561001057600080fd5b50600436106102275760003560e01c806391d1485411610130578063c4b1c735116100b8578063dd6055c81161007c578063dd6055c8146106a1578063e7feff2e146106d1578063e985e9c514610701578063f1bd743914610731578063f1dbaccb1461076157610227565b8063c4b1c735146105ff578063c87b56dd1461061b578063cf62664a1461064b578063d547741f14610667578063dbfd4b981461068357610227565b8063a762c342116100ff578063a762c3421461054b578063aa023ed814610567578063ab279a8e14610597578063b4e63495146105c7578063b88d4fde146105e357610227565b806391d14854146104c357806395d89b41146104f3578063a217fddf14610511578063a22cb4651461052f57610227565b806336568abe116101b3578063547686931161018257806354768693146103f75780636352211e1461042757806370a08231146104575780638388e2ba14610487578063842e7dba146104a557610227565b806336568abe1461038557806338fe1850146103a157806342842e0e146103bd5780634a3fba0e146103d957610227565b8063168fc898116101fa578063168fc898146102c657806320e7c6d4146102e457806323b872dd1461031d578063248a9ca3146103395780632f2ff15d1461036957610227565b806301ffc9a71461022c57806306fdde031461025c578063081812fc1461027a578063095ea7b3146102aa575b600080fd5b61024660048036038101906102419190614135565b610791565b604051610253919061417d565b60405180910390f35b6102646107a3565b6040516102719190614228565b60405180910390f35b610294600480360381019061028f9190614280565b610835565b6040516102a191906142ee565b60405180910390f35b6102c460048036038101906102bf9190614335565b610851565b005b6102ce610867565b6040516102db9190614384565b60405180910390f35b6102fe60048036038101906102f99190614280565b61086e565b6040516103149a9998979695949392919061439f565b60405180910390f35b61033760048036038101906103329190614465565b610bff565b005b610353600480360381019061034e91906144ee565b610d01565b604051610360919061452a565b60405180910390f35b610383600480360381019061037e9190614545565b610d21565b005b61039f600480360381019061039a9190614545565b610d43565b005b6103bb60048036038101906103b69190614616565b610dbe565b005b6103d760048036038101906103d29190614465565b610ef6565b005b6103e1610f16565b6040516103ee919061452a565b60405180910390f35b610411600480360381019061040c919061468a565b610f3a565b60405161041e9190614384565b60405180910390f35b610441600480360381019061043c9190614280565b611481565b60405161044e91906142ee565b60405180910390f35b610471600480360381019061046c9190614779565b611493565b60405161047e9190614384565b60405180910390f35b61048f61154d565b60405161049c9190614384565b60405180910390f35b6104ad611552565b6040516104ba9190614384565b60405180910390f35b6104dd60048036038101906104d89190614545565b61155c565b6040516104ea919061417d565b60405180910390f35b6104fb6115c7565b6040516105089190614228565b60405180910390f35b610519611659565b604051610526919061452a565b60405180910390f35b610549600480360381019061054491906147a6565b611660565b005b61056560048036038101906105609190614465565b611676565b005b610581600480360381019061057c919061483c565b6118b3565b60405161058e9190614947565b60405180910390f35b6105b160048036038101906105ac9190614280565b611ae8565b6040516105be9190614228565b60405180910390f35b6105e160048036038101906105dc91906149bf565b611c07565b005b6105fd60048036038101906105f89190614b70565b611d1e565b005b61061960048036038101906106149190614c49565b611d43565b005b61063560048036038101906106309190614280565b611e78565b6040516106429190614228565b60405180910390f35b61066560048036038101906106609190614cfd565b611f8b565b005b610681600480360381019061067c9190614545565b612153565b005b61068b612175565b6040516106989190614384565b60405180910390f35b6106bb60048036038101906106b69190614280565b61217f565b6040516106c89190614384565b60405180910390f35b6106eb60048036038101906106e69190614280565b612215565b6040516106f89190614e93565b60405180910390f35b61071b60048036038101906107169190614eb5565b61265f565b604051610728919061417d565b60405180910390f35b61074b60048036038101906107469190614280565b6126f3565b604051610758919061417d565b60405180910390f35b61077b60048036038101906107769190614280565b612796565b6040516107889190614228565b60405180910390f35b600061079c826128b5565b9050919050565b6060600080546107b290614f24565b80601f01602080910402602001604051908101604052809291908181526020018280546107de90614f24565b801561082b5780601f106108005761010080835404028352916020019161082b565b820191906000526020600020905b81548152906001019060200180831161080e57829003601f168201915b5050505050905090565b60006108408261292f565b5061084a826129b7565b9050919050565b610863828261085e6129f4565b6129fc565b5050565b6298968081565b600960205280600052604060002060009150905080600001805461089190614f24565b80601f01602080910402602001604051908101604052809291908181526020018280546108bd90614f24565b801561090a5780601f106108df5761010080835404028352916020019161090a565b820191906000526020600020905b8154815290600101906020018083116108ed57829003601f168201915b50505050509080600101805461091f90614f24565b80601f016020809104026020016040519081016040528092919081815260200182805461094b90614f24565b80156109985780601f1061096d57610100808354040283529160200191610998565b820191906000526020600020905b81548152906001019060200180831161097b57829003601f168201915b5050505050908060020154908060030180546109b390614f24565b80601f01602080910402602001604051908101604052809291908181526020018280546109df90614f24565b8015610a2c5780601f10610a0157610100808354040283529160200191610a2c565b820191906000526020600020905b815481529060010190602001808311610a0f57829003601f168201915b5050505050908060040154908060050160009054906101000a900460ff1690806006018054610a5a90614f24565b80601f0160208091040260200160405190810160405280929190818152602001828054610a8690614f24565b8015610ad35780601f10610aa857610100808354040283529160200191610ad3565b820191906000526020600020905b815481529060010190602001808311610ab657829003601f168201915b505050505090806007015490806008018054610aee90614f24565b80601f0160208091040260200160405190810160405280929190818152602001828054610b1a90614f24565b8015610b675780601f10610b3c57610100808354040283529160200191610b67565b820191906000526020600020905b815481529060010190602001808311610b4a57829003601f168201915b505050505090806009018054610b7c90614f24565b80601f0160208091040260200160405190810160405280929190818152602001828054610ba890614f24565b8015610bf55780601f10610bca57610100808354040283529160200191610bf5565b820191906000526020600020905b815481529060010190602001808311610bd857829003601f168201915b505050505090508a565b600073ffffffffffffffffffffffffffffffffffffffff168273ffffffffffffffffffffffffffffffffffffffff1603610c715760006040517f64a0ae92000000000000000000000000000000000000000000000000000000008152600401610c6891906142ee565b60405180910390fd5b6000610c858383610c806129f4565b612a0e565b90508373ffffffffffffffffffffffffffffffffffffffff168173ffffffffffffffffffffffffffffffffffffffff1614610cfb578382826040517f64283d7b000000000000000000000000000000000000000000000000000000008152600401610cf293929190614f55565b60405180910390fd5b50505050565b600060076000838152602001908152602001600020600101549050919050565b610d2a82610d01565b610d3381612c28565b610d3d8383612c3c565b50505050565b610d4b6129f4565b73ffffffffffffffffffffffffffffffffffffffff168173ffffffffffffffffffffffffffffffffffffffff1614610daf576040517f6697b23200000000000000000000000000000000000000000000000000000000815260040160405180910390fd5b610db98282612d2e565b505050565b7fd565e3fc066df348a5cbc05a8d6323e00552838041cea2d84cc59876ba37735d610de881612c28565b600073ffffffffffffffffffffffffffffffffffffffff16610e0986611481565b73ffffffffffffffffffffffffffffffffffffffff1603610e5f576040517f08c379a0000000000000000000000000000000000000000000000000000000008152600401610e5690614fd8565b60405180910390fd5b836009600087815260200190815260200160002060050160006101000a81548160ff0219169083151502179055508282600960008881526020019081526020016000206006019182610eb29291906151af565b50847f98e3861fadae44426bb5e7cf935f71a3a8910e85895fdc86ff0366e562a05cbb858585604051610ee7939291906152ac565b60405180910390a25050505050565b610f1183838360405180602001604052806000815250611d1e565b505050565b7fd565e3fc066df348a5cbc05a8d6323e00552838041cea2d84cc59876ba37735d81565b60007fd565e3fc066df348a5cbc05a8d6323e00552838041cea2d84cc59876ba37735d610f6681612c28565b600073ffffffffffffffffffffffffffffffffffffffff168b73ffffffffffffffffffffffffffffffffffffffff1603610fd5576040517f08c379a0000000000000000000000000000000000000000000000000000000008152600401610fcc9061532a565b60405180910390fd5b60008a8a90501161101b576040517f08c379a000000000000000000000000000000000000000000000000000000000815260040161101290615396565b60405180910390fd5b60008888905011611061576040517f08c379a000000000000000000000000000000000000000000000000000000000815260040161105890615402565b60405180910390fd5b600186101580156110755750629896808611155b6110b4576040517f08c379a00000000000000000000000000000000000000000000000000000000081526004016110ab9061546e565b60405180910390fd5b600085859050116110fa576040517f08c379a00000000000000000000000000000000000000000000000000000000081526004016110f1906154da565b60405180910390fd5b6000831161113d576040517f08c379a000000000000000000000000000000000000000000000000000000000815260040161113490615546565b60405180910390fd5b6008600081548092919061115090615595565b9190505550600060085490506111668c82612e21565b600061117185612e3f565b604051602001611181919061563f565b60405160208183030381529060405290506040518061014001604052808d8d8080601f016020809104026020016040519081016040528093929190818152602001838380828437600081840152601f19601f8201169050808301925050505050505081526020018b8b8080601f016020809104026020016040519081016040528093929190818152602001838380828437600081840152601f19601f82011690508083019250505050505050815260200189815260200188888080601f016020809104026020016040519081016040528093929190818152602001838380828437600081840152601f19601f820116905080830192505050505050508152602001868152602001600015158152602001604051806020016040528060008152508152602001428152602001604051806020016040528060008152508152602001604051806020016040528060008152508152506009600084815260200190815260200160002060008201518160000190816112fc9190615665565b5060208201518160010190816113129190615665565b506040820151816002015560608201518160030190816113329190615665565b506080820151816004015560a08201518160050160006101000a81548160ff02191690831515021790555060c08201518160060190816113729190615665565b5060e082015181600701556101008201518160080190816113939190615665565b506101208201518160090190816113aa9190615665565b509050506113b78d612f9f565b6040516020016113c7919061575d565b6040516020818303038152906040526009600084815260200190815260200160002060080190816113f89190615665565b508060096000848152602001908152602001600020600901908161141c9190615665565b50818d73ffffffffffffffffffffffffffffffffffffffff167fb145eb58c4ce95ea8ebb64f9ec4c2c5ff09c2aeb40afca8cee50367dfec496e68c8c604051611466929190615783565b60405180910390a38193505050509998505050505050505050565b600061148c8261292f565b9050919050565b60008073ffffffffffffffffffffffffffffffffffffffff168273ffffffffffffffffffffffffffffffffffffffff16036115065760006040517f89c62b640000000000000000000000000000000000000000000000000000000081526004016114fd91906142ee565b60405180910390fd5b600360008373ffffffffffffffffffffffffffffffffffffffff1673ffffffffffffffffffffffffffffffffffffffff168152602001908152602001600020549050919050565b600181565b6000600854905090565b60006007600084815260200190815260200160002060000160008373ffffffffffffffffffffffffffffffffffffffff1673ffffffffffffffffffffffffffffffffffffffff16815260200190815260200160002060009054906101000a900460ff16905092915050565b6060600180546115d690614f24565b80601f016020809104026020016040519081016040528092919081815260200182805461160290614f24565b801561164f5780601f106116245761010080835404028352916020019161164f565b820191906000526020600020905b81548152906001019060200180831161163257829003601f168201915b5050505050905090565b6000801b81565b61167261166b6129f4565b83836132a4565b5050565b6009600082815260200190815260200160002060050160009054906101000a900460ff16156116da576040517f08c379a00000000000000000000000000000000000000000000000000000000081526004016116d1906157f3565b60405180910390fd5b6116e26129f4565b73ffffffffffffffffffffffffffffffffffffffff1661170182611481565b73ffffffffffffffffffffffffffffffffffffffff16148061175d57506117266129f4565b73ffffffffffffffffffffffffffffffffffffffff1661174582610835565b73ffffffffffffffffffffffffffffffffffffffff16145b61179c576040517f08c379a00000000000000000000000000000000000000000000000000000000081526004016117939061585f565b60405180910390fd5b6117a7838383613413565b42600960008381526020019081526020016000206007018190555060006117cd84612f9f565b6117d684612f9f565b6040516020016117e79291906158cb565b60405160208183030381529060405290506009600083815260200190815260200160002060080181604051602001611820929190615990565b6040516020818303038152906040526009600084815260200190815260200160002060080190816118519190615665565b50818373ffffffffffffffffffffffffffffffffffffffff168573ffffffffffffffffffffffffffffffffffffffff167f268ae1851d13f9cd87a82ee6fc73474b3694d779b7bf6f66d86fd346f09511ed60405160405180910390a450505050565b60607fd565e3fc066df348a5cbc05a8d6323e00552838041cea2d84cc59876ba37735d6118df81612c28565b60008484905090506000811161192a576040517f08c379a000000000000000000000000000000000000000000000000000000000815260040161192190615a00565b60405180910390fd5b60008167ffffffffffffffff81111561194657611945614a45565b5b6040519080825280602002602001820160405280156119745781602001602082028036833780820191505090505b50905060005b82811015611adb57611aaf87878381811061199857611997615a20565b5b90506020028101906119aa9190615a5e565b60000160208101906119bc9190614779565b8888848181106119cf576119ce615a20565b5b90506020028101906119e19190615a5e565b80602001906119f09190615a86565b8a8a86818110611a0357611a02615a20565b5b9050602002810190611a159190615a5e565b8060400190611a249190615a86565b8c8c88818110611a3757611a36615a20565b5b9050602002810190611a499190615a5e565b606001358d8d89818110611a6057611a5f615a20565b5b9050602002810190611a729190615a5e565b8060800190611a819190615a86565b8f8f8b818110611a9457611a93615a20565b5b9050602002810190611aa69190615a5e565b60a00135610f3a565b828281518110611ac257611ac1615a20565b5b602002602001018181525050808060010191505061197a565b5080935050505092915050565b6060600073ffffffffffffffffffffffffffffffffffffffff16611b0b83611481565b73ffffffffffffffffffffffffffffffffffffffff1603611b61576040517f08c379a0000000000000000000000000000000000000000000000000000000008152600401611b5890614fd8565b60405180910390fd5b600960008381526020019081526020016000206009018054611b8290614f24565b80601f0160208091040260200160405190810160405280929190818152602001828054611bae90614f24565b8015611bfb5780601f10611bd057610100808354040283529160200191611bfb565b820191906000526020600020905b815481529060010190602001808311611bde57829003601f168201915b50505050509050919050565b7fd565e3fc066df348a5cbc05a8d6323e00552838041cea2d84cc59876ba37735d611c3181612c28565b828290508585905014611c79576040517f08c379a0000000000000000000000000000000000000000000000000000000008152600401611c7090615b35565b60405180910390fd5b60008585905011611cbf576040517f08c379a0000000000000000000000000000000000000000000000000000000008152600401611cb690615a00565b60405180910390fd5b60005b85859050811015611d1657611d09868683818110611ce357611ce2615a20565b5b90506020020135858584818110611cfd57611cfc615a20565b5b90506020020135611f8b565b8080600101915050611cc2565b505050505050565b611d29848484610bff565b611d3d611d346129f4565b85858585613580565b50505050565b8383905086869050148015611d5d57508181905086869050145b611d9c576040517f08c379a0000000000000000000000000000000000000000000000000000000008152600401611d9390615b35565b60405180910390fd5b60008686905011611de2576040517f08c379a0000000000000000000000000000000000000000000000000000000008152600401611dd990615a00565b60405180910390fd5b60005b86869050811015611e6f57611e62878783818110611e0657611e05615a20565b5b9050602002016020810190611e1b9190614779565b868684818110611e2e57611e2d615a20565b5b9050602002016020810190611e439190614779565b858585818110611e5657611e55615a20565b5b90506020020135611676565b8080600101915050611de5565b50505050505050565b6060611e838261292f565b506000600660008481526020019081526020016000208054611ea490614f24565b80601f0160208091040260200160405190810160405280929190818152602001828054611ed090614f24565b8015611f1d5780601f10611ef257610100808354040283529160200191611f1d565b820191906000526020600020905b815481529060010190602001808311611f0057829003601f168201915b505050505090506000611f2e613731565b90506000815103611f43578192505050611f86565b600082511115611f78578082604051602001611f60929190615b55565b60405160208183030381529060405292505050611f86565b611f8184613748565b925050505b919050565b7fd565e3fc066df348a5cbc05a8d6323e00552838041cea2d84cc59876ba37735d611fb581612c28565b600073ffffffffffffffffffffffffffffffffffffffff16611fd684611481565b73ffffffffffffffffffffffffffffffffffffffff160361202c576040517f08c379a000000000000000000000000000000000000000000000000000000000815260040161202390614fd8565b60405180910390fd5b6000821161206f576040517f08c379a000000000000000000000000000000000000000000000000000000000815260040161206690615546565b60405180910390fd5b600060096000858152602001908152602001600020600401549050826009600086815260200190815260200160002060040181905550600960008581526020019081526020016000206009016120c484612e3f565b6120cd42612e3f565b6040516020016120df93929190615bc5565b6040516020818303038152906040526009600086815260200190815260200160002060090190816121109190615665565b50837f7568affeab53e08d035c844db6a2a63ec1f609d48a48abea4fba7dc04817e40282854260405161214593929190615c14565b60405180910390a250505050565b61215c82610d01565b61216581612c28565b61216f8383612d2e565b50505050565b6000600854905090565b60008073ffffffffffffffffffffffffffffffffffffffff166121a183611481565b73ffffffffffffffffffffffffffffffffffffffff16036121f7576040517f08c379a00000000000000000000000000000000000000000000000000000000081526004016121ee90614fd8565b60405180910390fd5b60096000838152602001908152602001600020600401549050919050565b61221d614074565b600073ffffffffffffffffffffffffffffffffffffffff1661223e83611481565b73ffffffffffffffffffffffffffffffffffffffff1603612294576040517f08c379a000000000000000000000000000000000000000000000000000000000815260040161228b90614fd8565b60405180910390fd5b60096000838152602001908152602001600020604051806101400160405290816000820180546122c390614f24565b80601f01602080910402602001604051908101604052809291908181526020018280546122ef90614f24565b801561233c5780601f106123115761010080835404028352916020019161233c565b820191906000526020600020905b81548152906001019060200180831161231f57829003601f168201915b5050505050815260200160018201805461235590614f24565b80601f016020809104026020016040519081016040528092919081815260200182805461238190614f24565b80156123ce5780601f106123a3576101008083540402835291602001916123ce565b820191906000526020600020905b8154815290600101906020018083116123b157829003601f168201915b50505050508152602001600282015481526020016003820180546123f190614f24565b80601f016020809104026020016040519081016040528092919081815260200182805461241d90614f24565b801561246a5780601f1061243f5761010080835404028352916020019161246a565b820191906000526020600020905b81548152906001019060200180831161244d57829003601f168201915b50505050508152602001600482015481526020016005820160009054906101000a900460ff161515151581526020016006820180546124a890614f24565b80601f01602080910402602001604051908101604052809291908181526020018280546124d490614f24565b80156125215780601f106124f657610100808354040283529160200191612521565b820191906000526020600020905b81548152906001019060200180831161250457829003601f168201915b505050505081526020016007820154815260200160088201805461254490614f24565b80601f016020809104026020016040519081016040528092919081815260200182805461257090614f24565b80156125bd5780601f10612592576101008083540402835291602001916125bd565b820191906000526020600020905b8154815290600101906020018083116125a057829003601f168201915b505050505081526020016009820180546125d690614f24565b80601f016020809104026020016040519081016040528092919081815260200182805461260290614f24565b801561264f5780601f106126245761010080835404028352916020019161264f565b820191906000526020600020905b81548152906001019060200180831161263257829003601f168201915b5050505050815250509050919050565b6000600560008473ffffffffffffffffffffffffffffffffffffffff1673ffffffffffffffffffffffffffffffffffffffff16815260200190815260200160002060008373ffffffffffffffffffffffffffffffffffffffff1673ffffffffffffffffffffffffffffffffffffffff16815260200190815260200160002060009054906101000a900460ff16905092915050565b60008073ffffffffffffffffffffffffffffffffffffffff1661271583611481565b73ffffffffffffffffffffffffffffffffffffffff160361276b576040517f08c379a000000000000000000000000000000000000000000000000000000000815260040161276290614fd8565b60405180910390fd5b6009600083815260200190815260200160002060050160009054906101000a900460ff169050919050565b6060600073ffffffffffffffffffffffffffffffffffffffff166127b983611481565b73ffffffffffffffffffffffffffffffffffffffff160361280f576040517f08c379a000000000000000000000000000000000000000000000000000000000815260040161280690614fd8565b60405180910390fd5b60096000838152602001908152602001600020600801805461283090614f24565b80601f016020809104026020016040519081016040528092919081815260200182805461285c90614f24565b80156128a95780601f1061287e576101008083540402835291602001916128a9565b820191906000526020600020905b81548152906001019060200180831161288c57829003601f168201915b50505050509050919050565b60007f7965db0b000000000000000000000000000000000000000000000000000000007bffffffffffffffffffffffffffffffffffffffffffffffffffffffff1916827bffffffffffffffffffffffffffffffffffffffffffffffffffffffff191614806129285750612927826137b1565b5b9050919050565b60008061293b83613812565b9050600073ffffffffffffffffffffffffffffffffffffffff168173ffffffffffffffffffffffffffffffffffffffff16036129ae57826040517f7e2732890000000000000000000000000000000000000000000000000000000081526004016129a59190614384565b60405180910390fd5b80915050919050565b60006004600083815260200190815260200160002060009054906101000a900473ffffffffffffffffffffffffffffffffffffffff169050919050565b600033905090565b612a09838383600161384f565b505050565b600080612a1a84613812565b9050600073ffffffffffffffffffffffffffffffffffffffff168373ffffffffffffffffffffffffffffffffffffffff1614612a5c57612a5b818486613a14565b5b600073ffffffffffffffffffffffffffffffffffffffff168173ffffffffffffffffffffffffffffffffffffffff1614612aed57612a9e60008560008061384f565b6001600360008373ffffffffffffffffffffffffffffffffffffffff1673ffffffffffffffffffffffffffffffffffffffff168152602001908152602001600020600082825403925050819055505b600073ffffffffffffffffffffffffffffffffffffffff168573ffffffffffffffffffffffffffffffffffffffff1614612b70576001600360008773ffffffffffffffffffffffffffffffffffffffff1673ffffffffffffffffffffffffffffffffffffffff168152602001908152602001600020600082825401925050819055505b846002600086815260200190815260200160002060006101000a81548173ffffffffffffffffffffffffffffffffffffffff021916908373ffffffffffffffffffffffffffffffffffffffff160217905550838573ffffffffffffffffffffffffffffffffffffffff168273ffffffffffffffffffffffffffffffffffffffff167fddf252ad1be2c89b69c2b068fc378daa952ba7f163c4a11628f55a4df523b3ef60405160405180910390a4809150509392505050565b612c3981612c346129f4565b613ad8565b50565b6000612c48838361155c565b612d235760016007600085815260200190815260200160002060000160008473ffffffffffffffffffffffffffffffffffffffff1673ffffffffffffffffffffffffffffffffffffffff16815260200190815260200160002060006101000a81548160ff021916908315150217905550612cc06129f4565b73ffffffffffffffffffffffffffffffffffffffff168273ffffffffffffffffffffffffffffffffffffffff16847f2f8788117e7eff1d82e926ec794901d17c78024a50270940304540a733656f0d60405160405180910390a460019050612d28565b600090505b92915050565b6000612d3a838361155c565b15612e165760006007600085815260200190815260200160002060000160008473ffffffffffffffffffffffffffffffffffffffff1673ffffffffffffffffffffffffffffffffffffffff16815260200190815260200160002060006101000a81548160ff021916908315150217905550612db36129f4565b73ffffffffffffffffffffffffffffffffffffffff168273ffffffffffffffffffffffffffffffffffffffff16847ff6391f5c32d9c69d2a47ea670b442974b53935d1edc7fd64eb21e047a839171b60405160405180910390a460019050612e1b565b600090505b92915050565b612e3b828260405180602001604052806000815250613b29565b5050565b606060008203612e86576040518060400160405280600181526020017f30000000000000000000000000000000000000000000000000000000000000008152509050612f9a565b600082905060005b60008214612eb8578080612ea190615595565b915050600a82612eb19190615c7a565b9150612e8e565b60008167ffffffffffffffff811115612ed457612ed3614a45565b5b6040519080825280601f01601f191660200182016040528015612f065781602001600182028036833780820191505090505b5090505b60008514612f9357600182612f1f9190615cab565b9150600a85612f2e9190615cdf565b6030612f3a9190615d10565b60f81b818381518110612f5057612f4f615a20565b5b60200101907effffffffffffffffffffffffffffffffffffffffffffffffffffffffffffff1916908160001a905350600a85612f8c9190615c7a565b9450612f0a565b8093505050505b919050565b606060008273ffffffffffffffffffffffffffffffffffffffff1660001b905060006040518060400160405280601081526020017f303132333435363738396162636465660000000000000000000000000000000081525090506000602a67ffffffffffffffff81111561301657613015614a45565b5b6040519080825280601f01601f1916602001820160405280156130485781602001600182028036833780820191505090505b5090507f3000000000000000000000000000000000000000000000000000000000000000816000815181106130805761307f615a20565b5b60200101907effffffffffffffffffffffffffffffffffffffffffffffffffffffffffffff1916908160001a9053507f7800000000000000000000000000000000000000000000000000000000000000816001815181106130e4576130e3615a20565b5b60200101907effffffffffffffffffffffffffffffffffffffffffffffffffffffffffffff1916908160001a90535060005b60148110156132985782600485600c846131309190615d10565b6020811061314157613140615a20565b5b1a60f81b7effffffffffffffffffffffffffffffffffffffffffffffffffffffffffffff1916901c60f81c60ff16815181106131805761317f615a20565b5b602001015160f81c60f81b826002836131999190615d44565b60026131a59190615d10565b815181106131b6576131b5615a20565b5b60200101907effffffffffffffffffffffffffffffffffffffffffffffffffffffffffffff1916908160001a90535082600f60f81b85600c846131f99190615d10565b6020811061320a57613209615a20565b5b1a60f81b1660f81c60ff168151811061322657613225615a20565b5b602001015160f81c60f81b8260028361323f9190615d44565b600361324b9190615d10565b8151811061325c5761325b615a20565b5b60200101907effffffffffffffffffffffffffffffffffffffffffffffffffffffffffffff1916908160001a9053508080600101915050613116565b50809350505050919050565b600073ffffffffffffffffffffffffffffffffffffffff168273ffffffffffffffffffffffffffffffffffffffff160361331557816040517f5b08ba1800000000000000000000000000000000000000000000000000000000815260040161330c91906142ee565b60405180910390fd5b80600560008573ffffffffffffffffffffffffffffffffffffffff1673ffffffffffffffffffffffffffffffffffffffff16815260200190815260200160002060008473ffffffffffffffffffffffffffffffffffffffff1673ffffffffffffffffffffffffffffffffffffffff16815260200190815260200160002060006101000a81548160ff0219169083151502179055508173ffffffffffffffffffffffffffffffffffffffff168373ffffffffffffffffffffffffffffffffffffffff167f17307eab39ab6107e8899845ad3d59bd9653f200f220920489ca2b5937696c3183604051613406919061417d565b60405180910390a3505050565b600073ffffffffffffffffffffffffffffffffffffffff168273ffffffffffffffffffffffffffffffffffffffff16036134855760006040517f64a0ae9200000000000000000000000000000000000000000000000000000000815260040161347c91906142ee565b60405180910390fd5b600061349383836000612a0e565b9050600073ffffffffffffffffffffffffffffffffffffffff168173ffffffffffffffffffffffffffffffffffffffff160361350657816040517f7e2732890000000000000000000000000000000000000000000000000000000081526004016134fd9190614384565b60405180910390fd5b8373ffffffffffffffffffffffffffffffffffffffff168173ffffffffffffffffffffffffffffffffffffffff161461357a578382826040517f64283d7b00000000000000000000000000000000000000000000000000000000815260040161357193929190614f55565b60405180910390fd5b50505050565b60008373ffffffffffffffffffffffffffffffffffffffff163b111561372a578273ffffffffffffffffffffffffffffffffffffffff1663150b7a02868685856040518563ffffffff1660e01b81526004016135df9493929190615ddb565b6020604051808303816000875af192505050801561361b57506040513d601f19601f820116820180604052508101906136189190615e3c565b60015b61369f573d806000811461364b576040519150601f19603f3d011682016040523d82523d6000602084013e613650565b606091505b50600081510361369757836040517f64a0ae9200000000000000000000000000000000000000000000000000000000815260040161368e91906142ee565b60405180910390fd5b805181602001fd5b63150b7a0260e01b7bffffffffffffffffffffffffffffffffffffffffffffffffffffffff1916817bffffffffffffffffffffffffffffffffffffffffffffffffffffffff19161461372857836040517f64a0ae9200000000000000000000000000000000000000000000000000000000815260040161371f91906142ee565b60405180910390fd5b505b5050505050565b606060405180602001604052806000815250905090565b60606137538261292f565b50600061375e613731565b9050600081511161377e57604051806020016040528060008152506137a9565b8061378884613b4d565b604051602001613799929190615b55565b6040516020818303038152906040525b915050919050565b6000634906490660e01b7bffffffffffffffffffffffffffffffffffffffffffffffffffffffff1916827bffffffffffffffffffffffffffffffffffffffffffffffffffffffff1916148061380b575061380a82613c1b565b5b9050919050565b60006002600083815260200190815260200160002060009054906101000a900473ffffffffffffffffffffffffffffffffffffffff169050919050565b80806138885750600073ffffffffffffffffffffffffffffffffffffffff168273ffffffffffffffffffffffffffffffffffffffff1614155b156139bc5760006138988461292f565b9050600073ffffffffffffffffffffffffffffffffffffffff168373ffffffffffffffffffffffffffffffffffffffff161415801561390357508273ffffffffffffffffffffffffffffffffffffffff168173ffffffffffffffffffffffffffffffffffffffff1614155b80156139165750613914818461265f565b155b1561395857826040517fa9fbf51f00000000000000000000000000000000000000000000000000000000815260040161394f91906142ee565b60405180910390fd5b81156139ba57838573ffffffffffffffffffffffffffffffffffffffff168273ffffffffffffffffffffffffffffffffffffffff167f8c5be1e5ebec7d5bd14f71427d1e84f3dd0314c0f7b2291e5b200ac8c7c3b92560405160405180910390a45b505b836004600085815260200190815260200160002060006101000a81548173ffffffffffffffffffffffffffffffffffffffff021916908373ffffffffffffffffffffffffffffffffffffffff16021790555050505050565b613a1f838383613cfd565b613ad357600073ffffffffffffffffffffffffffffffffffffffff168373ffffffffffffffffffffffffffffffffffffffff1603613a9457806040517f7e273289000000000000000000000000000000000000000000000000000000008152600401613a8b9190614384565b60405180910390fd5b81816040517f177e802f000000000000000000000000000000000000000000000000000000008152600401613aca929190615e69565b60405180910390fd5b505050565b613ae2828261155c565b613b255780826040517fe2517d3f000000000000000000000000000000000000000000000000000000008152600401613b1c929190615e92565b60405180910390fd5b5050565b613b338383613dbe565b613b48613b3e6129f4565b6000858585613580565b505050565b606060006001613b5c84613eb7565b01905060008167ffffffffffffffff811115613b7b57613b7a614a45565b5b6040519080825280601f01601f191660200182016040528015613bad5781602001600182028036833780820191505090505b509050600082602001820190505b600115613c10578080600190039150507f3031323334353637383961626364656600000000000000000000000000000000600a86061a8153600a8581613c0457613c03615c4b565b5b04945060008503613bbb575b819350505050919050565b60007f80ac58cd000000000000000000000000000000000000000000000000000000007bffffffffffffffffffffffffffffffffffffffffffffffffffffffff1916827bffffffffffffffffffffffffffffffffffffffffffffffffffffffff19161480613ce657507f5b5e139f000000000000000000000000000000000000000000000000000000007bffffffffffffffffffffffffffffffffffffffffffffffffffffffff1916827bffffffffffffffffffffffffffffffffffffffffffffffffffffffff1916145b80613cf65750613cf58261400a565b5b9050919050565b60008073ffffffffffffffffffffffffffffffffffffffff168373ffffffffffffffffffffffffffffffffffffffff1614158015613db557508273ffffffffffffffffffffffffffffffffffffffff168473ffffffffffffffffffffffffffffffffffffffff161480613d765750613d75848461265f565b5b80613db457508273ffffffffffffffffffffffffffffffffffffffff16613d9c836129b7565b73ffffffffffffffffffffffffffffffffffffffff16145b5b90509392505050565b600073ffffffffffffffffffffffffffffffffffffffff168273ffffffffffffffffffffffffffffffffffffffff1603613e305760006040517f64a0ae92000000000000000000000000000000000000000000000000000000008152600401613e2791906142ee565b60405180910390fd5b6000613e3e83836000612a0e565b9050600073ffffffffffffffffffffffffffffffffffffffff168173ffffffffffffffffffffffffffffffffffffffff1614613eb25760006040517f73c6ac6e000000000000000000000000000000000000000000000000000000008152600401613ea991906142ee565b60405180910390fd5b505050565b600080600090507a184f03e93ff9f4daa797ed6e38ed64bf6a1f0100000000000000008310613f15577a184f03e93ff9f4daa797ed6e38ed64bf6a1f0100000000000000008381613f0b57613f0a615c4b565b5b0492506040810190505b6d04ee2d6d415b85acef81000000008310613f52576d04ee2d6d415b85acef81000000008381613f4857613f47615c4b565b5b0492506020810190505b662386f26fc100008310613f8157662386f26fc100008381613f7757613f76615c4b565b5b0492506010810190505b6305f5e1008310613faa576305f5e1008381613fa057613f9f615c4b565b5b0492506008810190505b6127108310613fcf576127108381613fc557613fc4615c4b565b5b0492506004810190505b60648310613ff25760648381613fe857613fe7615c4b565b5b0492506002810190505b600a8310614001576001810190505b80915050919050565b60007f01ffc9a7000000000000000000000000000000000000000000000000000000007bffffffffffffffffffffffffffffffffffffffffffffffffffffffff1916827bffffffffffffffffffffffffffffffffffffffffffffffffffffffff1916149050919050565b6040518061014001604052806060815260200160608152602001600081526020016060815260200160008152602001600015158152602001606081526020016000815260200160608152602001606081525090565b6000604051905090565b600080fd5b600080fd5b60007fffffffff0000000000000000000000000000000000000000000000000000000082169050919050565b614112816140dd565b811461411d57600080fd5b50565b60008135905061412f81614109565b92915050565b60006020828403121561414b5761414a6140d3565b5b600061415984828501614120565b91505092915050565b60008115159050919050565b61417781614162565b82525050565b6000602082019050614192600083018461416e565b92915050565b600081519050919050565b600082825260208201905092915050565b60005b838110156141d25780820151818401526020810190506141b7565b60008484015250505050565b6000601f19601f8301169050919050565b60006141fa82614198565b61420481856141a3565b93506142148185602086016141b4565b61421d816141de565b840191505092915050565b6000602082019050818103600083015261424281846141ef565b905092915050565b6000819050919050565b61425d8161424a565b811461426857600080fd5b50565b60008135905061427a81614254565b92915050565b600060208284031215614296576142956140d3565b5b60006142a48482850161426b565b91505092915050565b600073ffffffffffffffffffffffffffffffffffffffff82169050919050565b60006142d8826142ad565b9050919050565b6142e8816142cd565b82525050565b600060208201905061430360008301846142df565b92915050565b614312816142cd565b811461431d57600080fd5b50565b60008135905061432f81614309565b92915050565b6000806040838503121561434c5761434b6140d3565b5b600061435a85828601614320565b925050602061436b8582860161426b565b9150509250929050565b61437e8161424a565b82525050565b60006020820190506143996000830184614375565b92915050565b60006101408201905081810360008301526143ba818d6141ef565b905081810360208301526143ce818c6141ef565b90506143dd604083018b614375565b81810360608301526143ef818a6141ef565b90506143fe6080830189614375565b61440b60a083018861416e565b81810360c083015261441d81876141ef565b905061442c60e0830186614375565b81810361010083015261443f81856141ef565b905081810361012083015261445481846141ef565b90509b9a5050505050505050505050565b60008060006060848603121561447e5761447d6140d3565b5b600061448c86828701614320565b935050602061449d86828701614320565b92505060406144ae8682870161426b565b9150509250925092565b6000819050919050565b6144cb816144b8565b81146144d657600080fd5b50565b6000813590506144e8816144c2565b92915050565b600060208284031215614504576145036140d3565b5b6000614512848285016144d9565b91505092915050565b614524816144b8565b82525050565b600060208201905061453f600083018461451b565b92915050565b6000806040838503121561455c5761455b6140d3565b5b600061456a858286016144d9565b925050602061457b85828601614320565b9150509250929050565b61458e81614162565b811461459957600080fd5b50565b6000813590506145ab81614585565b92915050565b600080fd5b600080fd5b600080fd5b60008083601f8401126145d6576145d56145b1565b5b8235905067ffffffffffffffff8111156145f3576145f26145b6565b5b60208301915083600182028301111561460f5761460e6145bb565b5b9250929050565b600080600080606085870312156146305761462f6140d3565b5b600061463e8782880161426b565b945050602061464f8782880161459c565b935050604085013567ffffffffffffffff8111156146705761466f6140d8565b5b61467c878288016145c0565b925092505092959194509250565b600080600080600080600080600060c08a8c0312156146ac576146ab6140d3565b5b60006146ba8c828d01614320565b99505060208a013567ffffffffffffffff8111156146db576146da6140d8565b5b6146e78c828d016145c0565b985098505060408a013567ffffffffffffffff81111561470a576147096140d8565b5b6147168c828d016145c0565b965096505060606147298c828d0161426b565b94505060808a013567ffffffffffffffff81111561474a576147496140d8565b5b6147568c828d016145c0565b935093505060a06147698c828d0161426b565b9150509295985092959850929598565b60006020828403121561478f5761478e6140d3565b5b600061479d84828501614320565b91505092915050565b600080604083850312156147bd576147bc6140d3565b5b60006147cb85828601614320565b92505060206147dc8582860161459c565b9150509250929050565b60008083601f8401126147fc576147fb6145b1565b5b8235905067ffffffffffffffff811115614819576148186145b6565b5b602083019150836020820283011115614835576148346145bb565b5b9250929050565b60008060208385031215614853576148526140d3565b5b600083013567ffffffffffffffff811115614871576148706140d8565b5b61487d858286016147e6565b92509250509250929050565b600081519050919050565b600082825260208201905092915050565b6000819050602082019050919050565b6148be8161424a565b82525050565b60006148d083836148b5565b60208301905092915050565b6000602082019050919050565b60006148f482614889565b6148fe8185614894565b9350614909836148a5565b8060005b8381101561493a57815161492188826148c4565b975061492c836148dc565b92505060018101905061490d565b5085935050505092915050565b6000602082019050818103600083015261496181846148e9565b905092915050565b60008083601f84011261497f5761497e6145b1565b5b8235905067ffffffffffffffff81111561499c5761499b6145b6565b5b6020830191508360208202830111156149b8576149b76145bb565b5b9250929050565b600080600080604085870312156149d9576149d86140d3565b5b600085013567ffffffffffffffff8111156149f7576149f66140d8565b5b614a0387828801614969565b9450945050602085013567ffffffffffffffff811115614a2657614a256140d8565b5b614a3287828801614969565b925092505092959194509250565b600080fd5b7f4e487b7100000000000000000000000000000000000000000000000000000000600052604160045260246000fd5b614a7d826141de565b810181811067ffffffffffffffff82111715614a9c57614a9b614a45565b5b80604052505050565b6000614aaf6140c9565b9050614abb8282614a74565b919050565b600067ffffffffffffffff821115614adb57614ada614a45565b5b614ae4826141de565b9050602081019050919050565b82818337600083830152505050565b6000614b13614b0e84614ac0565b614aa5565b905082815260208101848484011115614b2f57614b2e614a40565b5b614b3a848285614af1565b509392505050565b600082601f830112614b5757614b566145b1565b5b8135614b67848260208601614b00565b91505092915050565b60008060008060808587031215614b8a57614b896140d3565b5b6000614b9887828801614320565b9450506020614ba987828801614320565b9350506040614bba8782880161426b565b925050606085013567ffffffffffffffff811115614bdb57614bda6140d8565b5b614be787828801614b42565b91505092959194509250565b60008083601f840112614c0957614c086145b1565b5b8235905067ffffffffffffffff811115614c2657614c256145b6565b5b602083019150836020820283011115614c4257614c416145bb565b5b9250929050565b60008060008060008060608789031215614c6657614c656140d3565b5b600087013567ffffffffffffffff811115614c8457614c836140d8565b5b614c9089828a01614bf3565b9650965050602087013567ffffffffffffffff811115614cb357614cb26140d8565b5b614cbf89828a01614bf3565b9450945050604087013567ffffffffffffffff811115614ce257614ce16140d8565b5b614cee89828a01614969565b92509250509295509295509295565b60008060408385031215614d1457614d136140d3565b5b6000614d228582860161426b565b9250506020614d338582860161426b565b9150509250929050565b600082825260208201905092915050565b6000614d5982614198565b614d638185614d3d565b9350614d738185602086016141b4565b614d7c816141de565b840191505092915050565b614d9081614162565b82525050565b6000610140830160008301518482036000860152614db48282614d4e565b91505060208301518482036020860152614dce8282614d4e565b9150506040830151614de360408601826148b5565b5060608301518482036060860152614dfb8282614d4e565b9150506080830151614e1060808601826148b5565b5060a0830151614e2360a0860182614d87565b5060c083015184820360c0860152614e3b8282614d4e565b91505060e0830151614e5060e08601826148b5565b50610100830151848203610100860152614e6a8282614d4e565b915050610120830151848203610120860152614e868282614d4e565b9150508091505092915050565b60006020820190508181036000830152614ead8184614d96565b905092915050565b60008060408385031215614ecc57614ecb6140d3565b5b6000614eda85828601614320565b9250506020614eeb85828601614320565b9150509250929050565b7f4e487b7100000000000000000000000000000000000000000000000000000000600052602260045260246000fd5b60006002820490506001821680614f3c57607f821691505b602082108103614f4f57614f4e614ef5565b5b50919050565b6000606082019050614f6a60008301866142df565b614f776020830185614375565b614f8460408301846142df565b949350505050565b7f546f6b656e20646f6573206e6f74206578697374000000000000000000000000600082015250565b6000614fc26014836141a3565b9150614fcd82614f8c565b602082019050919050565b60006020820190508181036000830152614ff181614fb5565b9050919050565b600082905092915050565b60008190508160005260206000209050919050565b60006020601f8301049050919050565b600082821b905092915050565b6000600883026150657fffffffffffffffffffffffffffffffffffffffffffffffffffffffffffffffff82615028565b61506f8683615028565b95508019841693508086168417925050509392505050565b6000819050919050565b60006150ac6150a76150a28461424a565b615087565b61424a565b9050919050565b6000819050919050565b6150c683615091565b6150da6150d2826150b3565b848454615035565b825550505050565b600090565b6150ef6150e2565b6150fa8184846150bd565b505050565b5b8181101561511e576151136000826150e7565b600181019050615100565b5050565b601f8211156151635761513481615003565b61513d84615018565b8101602085101561514c578190505b61516061515885615018565b8301826150ff565b50505b505050565b600082821c905092915050565b600061518660001984600802615168565b1980831691505092915050565b600061519f8383615175565b9150826002028217905092915050565b6151b98383614ff8565b67ffffffffffffffff8111156151d2576151d1614a45565b5b6151dc8254614f24565b6151e7828285615122565b6000601f8311600181146152165760008415615204578287013590505b61520e8582615193565b865550615276565b601f19841661522486615003565b60005b8281101561524c57848901358255600182019150602085019450602081019050615227565b868310156152695784890135615265601f891682615175565b8355505b6001600288020188555050505b50505050505050565b600061528b83856141a3565b9350615298838584614af1565b6152a1836141de565b840190509392505050565b60006040820190506152c1600083018661416e565b81810360208301526152d481848661527f565b9050949350505050565b7f496e76616c696420726563697069656e74206164647265737300000000000000600082015250565b60006153146019836141a3565b915061531f826152de565b602082019050919050565b6000602082019050818103600083015261534381615307565b9050919050565b7f4c6f636174696f6e2063616e6e6f7420626520656d7074790000000000000000600082015250565b60006153806018836141a3565b915061538b8261534a565b602082019050919050565b600060208201905081810360008301526153af81615373565b9050919050565b7f537572766579206e756d6265722063616e6e6f7420626520656d707479000000600082015250565b60006153ec601d836141a3565b91506153f7826153b6565b602082019050919050565b6000602082019050818103600083015261541b816153df565b9050919050565b7f496e76616c696420617265612073697a65000000000000000000000000000000600082015250565b60006154586011836141a3565b915061546382615422565b602082019050919050565b600060208201905081810360008301526154878161544b565b9050919050565b7f50726f706572747920747970652063616e6e6f7420626520656d707479000000600082015250565b60006154c4601d836141a3565b91506154cf8261548e565b602082019050919050565b600060208201905081810360008301526154f3816154b7565b9050919050565b7f4d61726b65742076616c7565206d75737420626520706f736974697665000000600082015250565b6000615530601d836141a3565b915061553b826154fa565b602082019050919050565b6000602082019050818103600083015261555f81615523565b9050919050565b7f4e487b7100000000000000000000000000000000000000000000000000000000600052601160045260246000fd5b60006155a08261424a565b91507fffffffffffffffffffffffffffffffffffffffffffffffffffffffffffffffff82036155d2576155d1615566565b5b600182019050919050565b7f496e697469616c2076616c75653a200000000000000000000000000000000000815250565b600081905092915050565b600061561982614198565b6156238185615603565b93506156338185602086016141b4565b80840191505092915050565b600061564a826155dd565b600f8201915061565a828461560e565b915081905092915050565b61566e82614198565b67ffffffffffffffff81111561568757615686614a45565b5b6156918254614f24565b61569c828285615122565b600060209050601f8311600181146156cf57600084156156bd578287015190505b6156c78582615193565b86555061572f565b601f1984166156dd86615003565b60005b82811015615705578489015182556001820191506020850194506020810190506156e0565b86831015615722578489015161571e601f891682615175565b8355505b6001600288020188555050505b505050505050565b7f4d696e74656420746f3a20000000000000000000000000000000000000000000815250565b600061576882615737565b600b82019150615778828461560e565b915081905092915050565b6000602082019050818103600083015261579e81848661527f565b90509392505050565b7f4c616e642068617320616e206163746976652064697370757465000000000000600082015250565b60006157dd601a836141a3565b91506157e8826157a7565b602082019050919050565b6000602082019050818103600083015261580c816157d0565b9050919050565b7f4e6f7420617070726f766564206f72206f776e65720000000000000000000000600082015250565b60006158496015836141a3565b915061585482615813565b602082019050919050565b600060208201905081810360008301526158788161583c565b9050919050565b7f2c205472616e736665727265642066726f6d3a20000000000000000000000000815250565b7f20746f3a20000000000000000000000000000000000000000000000000000000815250565b60006158d68261587f565b6014820191506158e6828561560e565b91506158f1826158a5565b600582019150615901828461560e565b91508190509392505050565b6000815461591a81614f24565b6159248186615603565b9450600182166000811461593f576001811461595457615987565b60ff1983168652811515820286019350615987565b61595d85615003565b60005b8381101561597f57815481890152600182019150602081019050615960565b838801955050505b50505092915050565b600061599c828561590d565b91506159a8828461560e565b91508190509392505050565b7f456d707479206261746368000000000000000000000000000000000000000000600082015250565b60006159ea600b836141a3565b91506159f5826159b4565b602082019050919050565b60006020820190508181036000830152615a19816159dd565b9050919050565b7f4e487b7100000000000000000000000000000000000000000000000000000000600052603260045260246000fd5b600080fd5b600080fd5b600080fd5b60008235600160c003833603038112615a7a57615a79615a4f565b5b80830191505092915050565b60008083356001602003843603038112615aa357615aa2615a4f565b5b80840192508235915067ffffffffffffffff821115615ac557615ac4615a54565b5b602083019250600182023603831315615ae157615ae0615a59565b5b509250929050565b7f4172726179206c656e67746873206d69736d6174636800000000000000000000600082015250565b6000615b1f6016836141a3565b9150615b2a82615ae9565b602082019050919050565b60006020820190508181036000830152615b4e81615b12565b9050919050565b6000615b61828561560e565b9150615b6d828461560e565b91508190509392505050565b7f2c205570646174656420746f3a20000000000000000000000000000000000000815250565b7f2061743a20000000000000000000000000000000000000000000000000000000815250565b6000615bd1828661590d565b9150615bdc82615b79565b600e82019150615bec828561560e565b9150615bf782615b9f565b600582019150615c07828461560e565b9150819050949350505050565b6000606082019050615c296000830186614375565b615c366020830185614375565b615c436040830184614375565b949350505050565b7f4e487b7100000000000000000000000000000000000000000000000000000000600052601260045260246000fd5b6000615c858261424a565b9150615c908361424a565b925082615ca057615c9f615c4b565b5b828204905092915050565b6000615cb68261424a565b9150615cc18361424a565b9250828203905081811115615cd957615cd8615566565b5b92915050565b6000615cea8261424a565b9150615cf58361424a565b925082615d0557615d04615c4b565b5b828206905092915050565b6000615d1b8261424a565b9150615d268361424a565b9250828201905080821115615d3e57615d3d615566565b5b92915050565b6000615d4f8261424a565b9150615d5a8361424a565b9250828202615d688161424a565b91508282048414831517615d7f57615d7e615566565b5b5092915050565b600081519050919050565b600082825260208201905092915050565b6000615dad82615d86565b615db78185615d91565b9350615dc78185602086016141b4565b615dd0816141de565b840191505092915050565b6000608082019050615df060008301876142df565b615dfd60208301866142df565b615e0a6040830185614375565b8181036060830152615e1c8184615da2565b905095945050505050565b600081519050615e3681614109565b92915050565b600060208284031215615e5257615e516140d3565b5b6000615e6084828501615e27565b91505092915050565b6000604082019050615e7e60008301856142df565b615e8b6020830184614375565b9392505050565b6000604082019050615ea760008301856142df565b615eb4602083018461451b565b939250505056fea2646970667358221220c1de9bfdc6c473ba17022010f160daa337eb3c2bd5b859df67e1842ef903f13c64736f6c634300081c0033",
  "linkReferences": {},
  "deployedLinkReferences": {}
}