{
  "_format": "hh-sol-artifact-1",
  "contractName": "OpenAcres",
  "sourceName": "contracts/OpenAcres.sol",
  "abi": [
    {
      "inputs": [],
      "stateMutability": "nonpayable",
      "type": "constructor"
    },
    {
      "inputs": [
        {
          "internalType": "address",
          "name": "sender",
          "type": "address"
        },
        {
          "internalType": "uint256",
          "name": "tokenId",
          "type": "uint256"
        },
        {
          "internalType": "address",
          "name": "owner",
          "type": "address"
        }
      ],
      "name": "ERC721IncorrectOwner",
      "type": "error"
    },
    {
      "inputs": [
        {
          "internalType": "address",
          "name": "operator",
          "type": "address"
        },
        {
          "internalType": "uint256",
          "name": "tokenId",
          "type": "uint256"
        }
      ],
      "name": "ERC721InsufficientApproval",
      "type": "error"
    },
    {
      "inputs": [
        {
          "internalType": "address",
          "name": "approver",
          "type": "address"
        }
      ],
      "name": "ERC721InvalidApprover",
      "type": "error"
    },
    {
      "inputs": [
        {
          "internalType": "address",
          "name": "operator",
          "type": "address"
        }
      ],
      "name": "ERC721InvalidOperator",
      "type": "error"
    },
    {
      "inputs": [
        {
          "internalType": "address",
          "name": "owner",
          "type": "address"
        }
      ],
      "name": "ERC721InvalidOwner",
      "type": "error"
    },
    {
      "inputs": [
        {
          "internalType": "address",
          "name": "receiver",
          "type": "address"
        }
      ],
      "name": "ERC721InvalidReceiver",
      "type": "error"
    },
    {
      "inputs": [
        {
          "internalType": "address",
          "name": "sender",
          "type": "address"
        }
      ],
      "name": "ERC721InvalidSender",
      "type": "error"
    },
    {
      "inputs": [
        {
          "internalType": "uint256",
          "name": "tokenId",
          "type": "uint256"
        }
      ],
      "name": "ERC721NonexistentToken",
      "type": "error"
    },
    {
      "inputs": [
        {
          "internalType": "address",
          "name": "owner",
          "type": "address"
        }
      ],
      "name": "OwnableInvalidOwner",
      "type": "error"
    },
    {
      "inputs": [
        {
          "internalType": "address",
          "name": "account",
          "type": "address"
        }
      ],
      "name": "OwnableUnauthorizedAccount",
      "type": "error"
    },
    {
      "anonymous": false,
      "inputs": [
        {
          "indexed": true,
          "internalType": "address",
          "name": "owner",
          "type": "address"
        },
        {
          "indexed": true,
          "internalType": "address",
          "name": "approved",
          "type": "address"
        },
        {
          "indexed": true,
          "internalType": "uint256",
          "name": "tokenId",
          "type": "uint256"
        }
      ],
      "name": "Approval",
      "type": "event"
    },
    {
      "anonymous": false,
      "inputs": [
        {
          "indexed": true,
          "internalType": "address",
          "name": "owner",
          "type": "address"
        },
        {
          "indexed": true,
          "internalType": "address",
          "name": "operator",
          "type": "address"
        },
        {
          "indexed": false,
          "internalType": "bool",
          "name": "approved",
          "type": "bool"
        }
      ],
      "name": "ApprovalForAll",
      "type": "event"
    },
    {
      "anonymous": false,
      "inputs": [
        {
          "indexed": false,
          "internalType": "uint256",
          "name": "_fromTokenId",
          "type": "uint256"
        },
        {
          "indexed": false,
          "internalType": "uint256",
          "name": "_toTokenId",
          "type": "uint256"
        }
      ],
      "name": "BatchMetadataUpdate",
      "type": "event"
    },
    {
      "anonymous": false,
      "inputs": [
        {
          "indexed": true,
          "internalType": "address",
          "name": "to",
          "type": "address"
        },
        {
          "indexed": true,
          "internalType": "uint256",
          "name": "tokenId",
          "type": "uint256"
        },
        {
          "indexed": false,
          "internalType": "string",
          "name": "uri",
          "type": "string"
        }
      ],
      "name": "LandMinted",
      "type": "event"
    },
    {
      "anonymous": false,
      "inputs": [
        {
          "indexed": true,
          "internalType": "address",
          "name": "from",
          "type": "address"
        },
        {
          "indexed": true,
          "internalType": "address",
          "name": "to",
          "type": "address"
        },
        {
          "indexed": true,
          "internalType": "uint256",
          "name": "tokenId",
          "type": "uint256"
        }
      ],
      "name": "LandTransferred",
      "type": "event"
    },
    {
      "anonymous": false,
      "inputs": [
        {
          "indexed": false,
          "internalType": "uint256",
          "name": "_tokenId",
          "type": "uint256"
        }
      ],
      "name": "MetadataUpdate",
      "type": "event"
    },
    {
      "anonymous": false,
      "inputs": [
        {
          "indexed": true,
          "internalType": "address",
          "name": "previousOwner",
          "type": "address"
        },
        {
          "indexed": true,
          "internalType": "address",
          "name": "newOwner",
          "type": "address"
        }
      ],
      "name": "OwnershipTransferred",
      "type": "event"
    },
    {
      "anonymous": false,
      "inputs": [
        {
          "indexed": true,
          "internalType": "address",
          "name": "from",
          "type": "address"
        },
        {
          "indexed": true,
          "internalType": "address",
          "name": "to",
          "type": "address"
        },
        {
          "indexed": true,
          "internalType": "uint256",
          "name": "tokenId",
          "type": "uint256"
        }
      ],
      "name": "Transfer",
      "type": "event"
    },
    {
      "inputs": [
        {
          "internalType": "address",
          "name": "to",
          "type": "address"
        },
        {
          "internalType": "uint256",
          "name": "tokenId",
          "type": "uint256"
        }
      ],
      "name": "approve",
      "outputs": [],
      "stateMutability": "nonpayable",
      "type": "function"
    },
    {
      "inputs": [
        {
          "internalType": "address",
          "name": "owner",
          "type": "address"
        }
      ],
      "name": "balanceOf",
      "outputs": [
        {
          "internalType": "uint256",
          "name": "",
          "type": "uint256"
        }
      ],
      "stateMutability": "view",
      "type": "function"
    },
    {
      "inputs": [
        {
          "internalType": "uint256",
          "name": "tokenId",
          "type": "uint256"
        }
      ],
      "name": "getApproved",
      "outputs": [
        {
          "internalType": "address",
          "name": "",
          "type": "address"
        }
      ],
      "stateMutability": "view",
      "type": "function"
    },
    {
      "inputs": [
        {
          "internalType": "address",
          "name": "owner",
          "type": "address"
        },
        {
          "internalType": "address",
          "name": "operator",
          "type": "address"
        }
      ],
      "name": "isApprovedForAll",
      "outputs": [
        {
          "internalType": "bool",
          "name": "",
          "type": "bool"
        }
      ],
      "stateMutability": "view",
      "type": "function"
    },
    {
      "inputs": [
        {
          "internalType": "address",
          "name": "to",
          "type": "address"
        },
        {
          "internalType": "string",
          "name": "metadataURI",
          "type": "string"
        }
      ],
      "name": "mintLand",
      "outputs": [
        {
          "internalType": "uint256",
          "name": "",
          "type": "uint256"
        }
      ],
      "stateMutability": "nonpayable",
      "type": "function"
    },
    {
      "inputs": [],
      "name": "name",
      "outputs": [
        {
          "internalType": "string",
          "name": "",
          "type": "string"
        }
      ],
      "stateMutability": "view",
      "type": "function"
    },
    {
      "inputs": [],
      "name": "owner",
      "outputs": [
        {
          "internalType": "address",
          "name": "",
          "type": "address"
        }
      ],
      "stateMutability": "view",
      "type": "function"
    },
    {
      "inputs": [
        {
          "internalType": "uint256",
          "name": "tokenId",
          "type": "uint256"
        }
      ],
      "name": "ownerOf",
      "outputs": [
        {
          "internalType": "address",
          "name": "",
          "type": "address"
        }
      ],
      "stateMutability": "view",
      "type": "function"
    },
    {
      "inputs": [],
      "name": "renounceOwnership",
      "outputs": [],
      "stateMutability": "nonpayable",
      "type": "function"
    },
    {
      "inputs": [
        {
          "internalType": "address",
          "name": "from",
          "type": "address"
        },
        {
          "internalType": "address",
          "name": "to",
          "type": "address"
        },
        {
          "internalType": "uint256",
          "name": "tokenId",
          "type": "uint256"
        }
      ],
      "name": "safeTransferFrom",
      "outputs": [],
      "stateMutability": "nonpayable",
      "type": "function"
    },
    {
      "inputs": [
        {
          "internalType": "address",
          "name": "from",
          "type": "address"
        },
        {
          "internalType": "address",
          "name": "to",
          "type": "address"
        },
        {
          "internalType": "uint256",
          "name": "tokenId",
          "type": "uint256"
        },
        {
          "internalType": "bytes",
          "name": "data",
          "type": "bytes"
        }
      ],
      "name": "safeTransferFrom",
      "outputs": [],
      "stateMutability": "nonpayable",
      "type": "function"
    },
    {
      "inputs": [
        {
          "internalType": "address",
          "name": "operator",
          "type": "address"
        },
        {
          "internalType": "bool",
          "name": "approved",
          "type": "bool"
        }
      ],
      "name": "setApprovalForAll",
      "outputs": [],
      "stateMutability": "nonpayable",
      "type": "function"
    },
    {
      "inputs": [
        {
          "internalType": "bytes4",
          "name": "interfaceId",
          "type": "bytes4"
        }
      ],
      "name": "supportsInterface",
      "outputs": [
        {
          "internalType": "bool",
          "name": "",
          "type": "bool"
        }
      ],
      "stateMutability": "view",
      "type": "function"
    },
    {
      "inputs": [],
      "name": "symbol",
      "outputs": [
        {
          "internalType": "string",
          "name": "",
          "type": "string"
        }
      ],
      "stateMutability": "view",
      "type": "function"
    },
    {
      "inputs": [
        {
          "internalType": "uint256",
          "name": "tokenId",
          "type": "uint256"
        }
      ],
      "name": "tokenURI",
      "outputs": [
        {
          "internalType": "string",
          "name": "",
          "type": "string"
        }
      ],
      "stateMutability": "view",
      "type": "function"
    },
    {
      "inputs": [
        {
          "internalType": "address",
          "name": "from",
          "type": "address"
        },
        {
          "internalType": "address",
          "name": "to",
          "type": "address"
        },
        {
          "internalType": "uint256",
          "name": "tokenId",
          "type": "uint256"
        }
      ],
      "name": "transferFrom",
      "outputs": [],
      "stateMutability": "nonpayable",
      "type": "function"
    },
    {
      "inputs": [
        {
          "internalType": "address",
          "name": "from",
          "type": "address"
        },
        {
          "internalType": "address",
          "name": "to",
          "type": "address"
        },
        {
          "internalType": "uint256",
          "name": "tokenId",
          "type": "uint256"
        }
      ],
      "name": "transferLand",
      "outputs": [],
      "stateMutability": "nonpayable",
      "type": "function"
    },
    {
      "inputs": [
        {
          "internalType": "address",
          "name": "newOwner",
          "type": "address"
        }
      ],
      "name": "transferOwnership",
      "outputs": [],
      "stateMutability": "nonpayable",
      "type": "function"
    }
  ],
  "bytecode": "0x608060405234801561001057600080fd5b50336040518060400160405280600981526020017f4f70656e416372657300000000000000000000000000000000000000000000008152506040518060400160405280600381526020017f4f41430000000000000000000000000000000000000000000000000000000000815250816000908161008d919061043d565b50806001908161009d919061043d565b505050600073ffffffffffffffffffffffffffffffffffffffff168173ffffffffffffffffffffffffffffffffffffffff16036101125760006040517f1e4fbdf70000000000000000000000000000000000000000000000000000000081526004016101099190610550565b60405180910390fd5b6101218161012760201b60201c565b5061056b565b6000600760009054906101000a900473ffffffffffffffffffffffffffffffffffffffff16905081600760006101000a81548173ffffffffffffffffffffffffffffffffffffffff021916908373ffffffffffffffffffffffffffffffffffffffff1602179055508173ffffffffffffffffffffffffffffffffffffffff168173ffffffffffffffffffffffffffffffffffffffff167f8be0079c531659141344cd1fd0a4f28419497f9722a3daafe3b4186f6b6457e060405160405180910390a35050565b600081519050919050565b7f4e487b7100000000000000000000000000000000000000000000000000000000600052604160045260246000fd5b7f4e487b7100000000000000000000000000000000000000000000000000000000600052602260045260246000fd5b6000600282049050600182168061026e57607f821691505b60208210810361028157610280610227565b5b50919050565b60008190508160005260206000209050919050565b60006020601f8301049050919050565b600082821b905092915050565b6000600883026102e97fffffffffffffffffffffffffffffffffffffffffffffffffffffffffffffffff826102ac565b6102f386836102ac565b95508019841693508086168417925050509392505050565b6000819050919050565b6000819050919050565b600061033a6103356103308461030b565b610315565b61030b565b9050919050565b6000819050919050565b6103548361031f565b61036861036082610341565b8484546102b9565b825550505050565b600090565b61037d610370565b61038881848461034b565b505050565b5b818110156103ac576103a1600082610375565b60018101905061038e565b5050565b601f8211156103f1576103c281610287565b6103cb8461029c565b810160208510156103da578190505b6103ee6103e68561029c565b83018261038d565b50505b505050565b600082821c905092915050565b6000610414600019846008026103f6565b1980831691505092915050565b600061042d8383610403565b9150826002028217905092915050565b610446826101ed565b67ffffffffffffffff81111561045f5761045e6101f8565b5b6104698254610256565b6104748282856103b0565b600060209050601f8311600181146104a75760008415610495578287015190505b61049f8582610421565b865550610507565b601f1984166104b586610287565b60005b828110156104dd578489015182556001820191506020850194506020810190506104b8565b868310156104fa57848901516104f6601f891682610403565b8355505b6001600288020188555050505b505050505050565b600073ffffffffffffffffffffffffffffffffffffffff82169050919050565b600061053a8261050f565b9050919050565b61054a8161052f565b82525050565b60006020820190506105656000830184610541565b92915050565b612a638061057a6000396000f3fe608060405234801561001057600080fd5b50600436106101165760003560e01c8063715018a6116100a2578063a762c34211610071578063a762c342146102df578063b88d4fde146102fb578063c87b56dd14610317578063e985e9c514610347578063f2fde38b1461037757610116565b8063715018a61461027d5780638da5cb5b1461028757806395d89b41146102a5578063a22cb465146102c357610116565b806323b872dd116100e957806323b872dd146101b557806342842e0e146101d1578063505de93c146101ed5780636352211e1461021d57806370a082311461024d57610116565b806301ffc9a71461011b57806306fdde031461014b578063081812fc14610169578063095ea7b314610199575b600080fd5b61013560048036038101906101309190611e3b565b610393565b6040516101429190611e83565b60405180910390f35b6101536103f4565b6040516101609190611f2e565b60405180910390f35b610183600480360381019061017e9190611f86565b610486565b6040516101909190611ff4565b60405180910390f35b6101b360048036038101906101ae919061203b565b6104a2565b005b6101cf60048036038101906101ca919061207b565b6104b8565b005b6101eb60048036038101906101e6919061207b565b6105ba565b005b61020760048036038101906102029190612133565b6105da565b60405161021491906121a2565b60405180910390f35b61023760048036038101906102329190611f86565b6106b7565b6040516102449190611ff4565b60405180910390f35b610267600480360381019061026291906121bd565b6106c9565b60405161027491906121a2565b60405180910390f35b610285610783565b005b61028f610797565b60405161029c9190611ff4565b60405180910390f35b6102ad6107c1565b6040516102ba9190611f2e565b60405180910390f35b6102dd60048036038101906102d89190612216565b610853565b005b6102f960048036038101906102f4919061207b565b610869565b005b61031560048036038101906103109190612386565b61099f565b005b610331600480360381019061032c9190611f86565b6109c4565b60405161033e9190611f2e565b60405180910390f35b610361600480360381019061035c9190612409565b610ad7565b60405161036e9190611e83565b60405180910390f35b610391600480360381019061038c91906121bd565b610b6b565b005b6000634906490660e01b7bffffffffffffffffffffffffffffffffffffffffffffffffffffffff1916827bffffffffffffffffffffffffffffffffffffffffffffffffffffffff191614806103ed57506103ec82610bf1565b5b9050919050565b60606000805461040390612478565b80601f016020809104026020016040519081016040528092919081815260200182805461042f90612478565b801561047c5780601f106104515761010080835404028352916020019161047c565b820191906000526020600020905b81548152906001019060200180831161045f57829003601f168201915b5050505050905090565b600061049182610cd3565b5061049b82610d5b565b9050919050565b6104b482826104af610d98565b610da0565b5050565b600073ffffffffffffffffffffffffffffffffffffffff168273ffffffffffffffffffffffffffffffffffffffff160361052a5760006040517f64a0ae920000000000000000000000000000000000000000000000000000000081526004016105219190611ff4565b60405180910390fd5b600061053e8383610539610d98565b610db2565b90508373ffffffffffffffffffffffffffffffffffffffff168173ffffffffffffffffffffffffffffffffffffffff16146105b4578382826040517f64283d7b0000000000000000000000000000000000000000000000000000000081526004016105ab939291906124a9565b60405180910390fd5b50505050565b6105d58383836040518060200160405280600081525061099f565b505050565b60006105e4610fcc565b600860008154809291906105f79061250f565b91905055506000600854905061060d8582611053565b61065b8185858080601f016020809104026020016040519081016040528093929190818152602001838380828437600081840152601f19601f82011690508083019250505050505050611071565b808573ffffffffffffffffffffffffffffffffffffffff167fb145eb58c4ce95ea8ebb64f9ec4c2c5ff09c2aeb40afca8cee50367dfec496e686866040516106a4929190612584565b60405180910390a3809150509392505050565b60006106c282610cd3565b9050919050565b60008073ffffffffffffffffffffffffffffffffffffffff168273ffffffffffffffffffffffffffffffffffffffff160361073c5760006040517f89c62b640000000000000000000000000000000000000000000000000000000081526004016107339190611ff4565b60405180910390fd5b600360008373ffffffffffffffffffffffffffffffffffffffff1673ffffffffffffffffffffffffffffffffffffffff168152602001908152602001600020549050919050565b61078b610fcc565b61079560006110cd565b565b6000600760009054906101000a900473ffffffffffffffffffffffffffffffffffffffff16905090565b6060600180546107d090612478565b80601f01602080910402602001604051908101604052809291908181526020018280546107fc90612478565b80156108495780601f1061081e57610100808354040283529160200191610849565b820191906000526020600020905b81548152906001019060200180831161082c57829003601f168201915b5050505050905090565b61086561085e610d98565b8383611193565b5050565b6000610874826106b7565b90508073ffffffffffffffffffffffffffffffffffffffff163373ffffffffffffffffffffffffffffffffffffffff1614806108e357503373ffffffffffffffffffffffffffffffffffffffff166108cb83610486565b73ffffffffffffffffffffffffffffffffffffffff16145b806108f457506108f38133610ad7565b5b610933576040517f08c379a000000000000000000000000000000000000000000000000000000000815260040161092a906125f4565b60405180910390fd5b61093e848484611302565b818373ffffffffffffffffffffffffffffffffffffffff168573ffffffffffffffffffffffffffffffffffffffff167f268ae1851d13f9cd87a82ee6fc73474b3694d779b7bf6f66d86fd346f09511ed60405160405180910390a450505050565b6109aa8484846104b8565b6109be6109b5610d98565b8585858561146f565b50505050565b60606109cf82610cd3565b5060006006600084815260200190815260200160002080546109f090612478565b80601f0160208091040260200160405190810160405280929190818152602001828054610a1c90612478565b8015610a695780601f10610a3e57610100808354040283529160200191610a69565b820191906000526020600020905b815481529060010190602001808311610a4c57829003601f168201915b505050505090506000610a7a611620565b90506000815103610a8f578192505050610ad2565b600082511115610ac4578082604051602001610aac929190612650565b60405160208183030381529060405292505050610ad2565b610acd84611637565b925050505b919050565b6000600560008473ffffffffffffffffffffffffffffffffffffffff1673ffffffffffffffffffffffffffffffffffffffff16815260200190815260200160002060008373ffffffffffffffffffffffffffffffffffffffff1673ffffffffffffffffffffffffffffffffffffffff16815260200190815260200160002060009054906101000a900460ff16905092915050565b610b73610fcc565b600073ffffffffffffffffffffffffffffffffffffffff168173ffffffffffffffffffffffffffffffffffffffff1603610be55760006040517f1e4fbdf7000000000000000000000000000000000000000000000000000000008152600401610bdc9190611ff4565b60405180910390fd5b610bee816110cd565b50565b60007f80ac58cd000000000000000000000000000000000000000000000000000000007bffffffffffffffffffffffffffffffffffffffffffffffffffffffff1916827bffffffffffffffffffffffffffffffffffffffffffffffffffffffff19161480610cbc57507f5b5e139f000000000000000000000000000000000000000000000000000000007bffffffffffffffffffffffffffffffffffffffffffffffffffffffff1916827bffffffffffffffffffffffffffffffffffffffffffffffffffffffff1916145b80610ccc5750610ccb826116a0565b5b9050919050565b600080610cdf8361170a565b9050600073ffffffffffffffffffffffffffffffffffffffff168173ffffffffffffffffffffffffffffffffffffffff1603610d5257826040517f7e273289000000000000000000000000000000000000000000000000000000008152600401610d4991906121a2565b60405180910390fd5b80915050919050565b60006004600083815260200190815260200160002060009054906101000a900473ffffffffffffffffffffffffffffffffffffffff169050919050565b600033905090565b610dad8383836001611747565b505050565b600080610dbe8461170a565b9050600073ffffffffffffffffffffffffffffffffffffffff168373ffffffffffffffffffffffffffffffffffffffff1614610e0057610dff81848661190c565b5b600073ffffffffffffffffffffffffffffffffffffffff168173ffffffffffffffffffffffffffffffffffffffff1614610e9157610e42600085600080611747565b6001600360008373ffffffffffffffffffffffffffffffffffffffff1673ffffffffffffffffffffffffffffffffffffffff168152602001908152602001600020600082825403925050819055505b600073ffffffffffffffffffffffffffffffffffffffff168573ffffffffffffffffffffffffffffffffffffffff1614610f14576001600360008773ffffffffffffffffffffffffffffffffffffffff1673ffffffffffffffffffffffffffffffffffffffff168152602001908152602001600020600082825401925050819055505b846002600086815260200190815260200160002060006101000a81548173ffffffffffffffffffffffffffffffffffffffff021916908373ffffffffffffffffffffffffffffffffffffffff160217905550838573ffffffffffffffffffffffffffffffffffffffff168273ffffffffffffffffffffffffffffffffffffffff167fddf252ad1be2c89b69c2b068fc378daa952ba7f163c4a11628f55a4df523b3ef60405160405180910390a4809150509392505050565b610fd4610d98565b73ffffffffffffffffffffffffffffffffffffffff16610ff2610797565b73ffffffffffffffffffffffffffffffffffffffff161461105157611015610d98565b6040517f118cdaa70000000000000000000000000000000000000000000000000000000081526004016110489190611ff4565b60405180910390fd5b565b61106d8282604051806020016040528060008152506119d0565b5050565b806006600084815260200190815260200160002090816110919190612820565b507ff8e1a15aba9398e019f0b49df1a4fde98ee17ae345cb5f6b5e2c27f5033e8ce7826040516110c191906121a2565b60405180910390a15050565b6000600760009054906101000a900473ffffffffffffffffffffffffffffffffffffffff16905081600760006101000a81548173ffffffffffffffffffffffffffffffffffffffff021916908373ffffffffffffffffffffffffffffffffffffffff1602179055508173ffffffffffffffffffffffffffffffffffffffff168173ffffffffffffffffffffffffffffffffffffffff167f8be0079c531659141344cd1fd0a4f28419497f9722a3daafe3b4186f6b6457e060405160405180910390a35050565b600073ffffffffffffffffffffffffffffffffffffffff168273ffffffffffffffffffffffffffffffffffffffff160361120457816040517f5b08ba180000000000000000000000000000000000000000000000000000000081526004016111fb9190611ff4565b60405180910390fd5b80600560008573ffffffffffffffffffffffffffffffffffffffff1673ffffffffffffffffffffffffffffffffffffffff16815260200190815260200160002060008473ffffffffffffffffffffffffffffffffffffffff1673ffffffffffffffffffffffffffffffffffffffff16815260200190815260200160002060006101000a81548160ff0219169083151502179055508173ffffffffffffffffffffffffffffffffffffffff168373ffffffffffffffffffffffffffffffffffffffff167f17307eab39ab6107e8899845ad3d59bd9653f200f220920489ca2b5937696c31836040516112f59190611e83565b60405180910390a3505050565b600073ffffffffffffffffffffffffffffffffffffffff168273ffffffffffffffffffffffffffffffffffffffff16036113745760006040517f64a0ae9200000000000000000000000000000000000000000000000000000000815260040161136b9190611ff4565b60405180910390fd5b600061138283836000610db2565b9050600073ffffffffffffffffffffffffffffffffffffffff168173ffffffffffffffffffffffffffffffffffffffff16036113f557816040517f7e2732890000000000000000000000000000000000000000000000000000000081526004016113ec91906121a2565b60405180910390fd5b8373ffffffffffffffffffffffffffffffffffffffff168173ffffffffffffffffffffffffffffffffffffffff1614611469578382826040517f64283d7b000000000000000000000000000000000000000000000000000000008152600401611460939291906124a9565b60405180910390fd5b50505050565b60008373ffffffffffffffffffffffffffffffffffffffff163b1115611619578273ffffffffffffffffffffffffffffffffffffffff1663150b7a02868685856040518563ffffffff1660e01b81526004016114ce9493929190612947565b6020604051808303816000875af192505050801561150a57506040513d601f19601f8201168201806040525081019061150791906129a8565b60015b61158e573d806000811461153a576040519150601f19603f3d011682016040523d82523d6000602084013e61153f565b606091505b50600081510361158657836040517f64a0ae9200000000000000000000000000000000000000000000000000000000815260040161157d9190611ff4565b60405180910390fd5b805181602001fd5b63150b7a0260e01b7bffffffffffffffffffffffffffffffffffffffffffffffffffffffff1916817bffffffffffffffffffffffffffffffffffffffffffffffffffffffff19161461161757836040517f64a0ae9200000000000000000000000000000000000000000000000000000000815260040161160e9190611ff4565b60405180910390fd5b505b5050505050565b606060405180602001604052806000815250905090565b606061164282610cd3565b50600061164d611620565b9050600081511161166d5760405180602001604052806000815250611698565b80611677846119f4565b604051602001611688929190612650565b6040516020818303038152906040525b915050919050565b60007f01ffc9a7000000000000000000000000000000000000000000000000000000007bffffffffffffffffffffffffffffffffffffffffffffffffffffffff1916827bffffffffffffffffffffffffffffffffffffffffffffffffffffffff1916149050919050565b60006002600083815260200190815260200160002060009054906101000a900473ffffffffffffffffffffffffffffffffffffffff169050919050565b80806117805750600073ffffffffffffffffffffffffffffffffffffffff168273ffffffffffffffffffffffffffffffffffffffff1614155b156118b457600061179084610cd3565b9050600073ffffffffffffffffffffffffffffffffffffffff168373ffffffffffffffffffffffffffffffffffffffff16141580156117fb57508273ffffffffffffffffffffffffffffffffffffffff168173ffffffffffffffffffffffffffffffffffffffff1614155b801561180e575061180c8184610ad7565b155b1561185057826040517fa9fbf51f0000000000000000000000000000000000000000000000000000000081526004016118479190611ff4565b60405180910390fd5b81156118b257838573ffffffffffffffffffffffffffffffffffffffff168273ffffffffffffffffffffffffffffffffffffffff167f8c5be1e5ebec7d5bd14f71427d1e84f3dd0314c0f7b2291e5b200ac8c7c3b92560405160405180910390a45b505b836004600085815260200190815260200160002060006101000a81548173ffffffffffffffffffffffffffffffffffffffff021916908373ffffffffffffffffffffffffffffffffffffffff16021790555050505050565b611917838383611ac2565b6119cb57600073ffffffffffffffffffffffffffffffffffffffff168373ffffffffffffffffffffffffffffffffffffffff160361198c57806040517f7e27328900000000000000000000000000000000000000000000000000000000815260040161198391906121a2565b60405180910390fd5b81816040517f177e802f0000000000000000000000000000000000000000000000000000000081526004016119c29291906129d5565b60405180910390fd5b505050565b6119da8383611b83565b6119ef6119e5610d98565b600085858561146f565b505050565b606060006001611a0384611c7c565b01905060008167ffffffffffffffff811115611a2257611a2161225b565b5b6040519080825280601f01601f191660200182016040528015611a545781602001600182028036833780820191505090505b509050600082602001820190505b600115611ab7578080600190039150507f3031323334353637383961626364656600000000000000000000000000000000600a86061a8153600a8581611aab57611aaa6129fe565b5b04945060008503611a62575b819350505050919050565b60008073ffffffffffffffffffffffffffffffffffffffff168373ffffffffffffffffffffffffffffffffffffffff1614158015611b7a57508273ffffffffffffffffffffffffffffffffffffffff168473ffffffffffffffffffffffffffffffffffffffff161480611b3b5750611b3a8484610ad7565b5b80611b7957508273ffffffffffffffffffffffffffffffffffffffff16611b6183610d5b565b73ffffffffffffffffffffffffffffffffffffffff16145b5b90509392505050565b600073ffffffffffffffffffffffffffffffffffffffff168273ffffffffffffffffffffffffffffffffffffffff1603611bf55760006040517f64a0ae92000000000000000000000000000000000000000000000000000000008152600401611bec9190611ff4565b60405180910390fd5b6000611c0383836000610db2565b9050600073ffffffffffffffffffffffffffffffffffffffff168173ffffffffffffffffffffffffffffffffffffffff1614611c775760006040517f73c6ac6e000000000000000000000000000000000000000000000000000000008152600401611c6e9190611ff4565b60405180910390fd5b505050565b600080600090507a184f03e93ff9f4daa797ed6e38ed64bf6a1f0100000000000000008310611cda577a184f03e93ff9f4daa797ed6e38ed64bf6a1f0100000000000000008381611cd057611ccf6129fe565b5b0492506040810190505b6d04ee2d6d415b85acef81000000008310611d17576d04ee2d6d415b85acef81000000008381611d0d57611d0c6129fe565b5b0492506020810190505b662386f26fc100008310611d4657662386f26fc100008381611d3c57611d3b6129fe565b5b0492506010810190505b6305f5e1008310611d6f576305f5e1008381611d6557611d646129fe565b5b0492506008810190505b6127108310611d94576127108381611d8a57611d896129fe565b5b0492506004810190505b60648310611db75760648381611dad57611dac6129fe565b5b0492506002810190505b600a8310611dc6576001810190505b80915050919050565b6000604051905090565b600080fd5b600080fd5b60007fffffffff0000000000000000000000000000000000000000000000000000000082169050919050565b611e1881611de3565b8114611e2357600080fd5b50565b600081359050611e3581611e0f565b92915050565b600060208284031215611e5157611e50611dd9565b5b6000611e5f84828501611e26565b91505092915050565b60008115159050919050565b611e7d81611e68565b82525050565b6000602082019050611e986000830184611e74565b92915050565b600081519050919050565b600082825260208201905092915050565b60005b83811015611ed8578082015181840152602081019050611ebd565b60008484015250505050565b6000601f19601f8301169050919050565b6000611f0082611e9e565b611f0a8185611ea9565b9350611f1a818560208601611eba565b611f2381611ee4565b840191505092915050565b60006020820190508181036000830152611f488184611ef5565b905092915050565b6000819050919050565b611f6381611f50565b8114611f6e57600080fd5b50565b600081359050611f8081611f5a565b92915050565b600060208284031215611f9c57611f9b611dd9565b5b6000611faa84828501611f71565b91505092915050565b600073ffffffffffffffffffffffffffffffffffffffff82169050919050565b6000611fde82611fb3565b9050919050565b611fee81611fd3565b82525050565b60006020820190506120096000830184611fe5565b92915050565b61201881611fd3565b811461202357600080fd5b50565b6000813590506120358161200f565b92915050565b6000806040838503121561205257612051611dd9565b5b600061206085828601612026565b925050602061207185828601611f71565b9150509250929050565b60008060006060848603121561209457612093611dd9565b5b60006120a286828701612026565b93505060206120b386828701612026565b92505060406120c486828701611f71565b9150509250925092565b600080fd5b600080fd5b600080fd5b60008083601f8401126120f3576120f26120ce565b5b8235905067ffffffffffffffff8111156121105761210f6120d3565b5b60208301915083600182028301111561212c5761212b6120d8565b5b9250929050565b60008060006040848603121561214c5761214b611dd9565b5b600061215a86828701612026565b935050602084013567ffffffffffffffff81111561217b5761217a611dde565b5b612187868287016120dd565b92509250509250925092565b61219c81611f50565b82525050565b60006020820190506121b76000830184612193565b92915050565b6000602082840312156121d3576121d2611dd9565b5b60006121e184828501612026565b91505092915050565b6121f381611e68565b81146121fe57600080fd5b50565b600081359050612210816121ea565b92915050565b6000806040838503121561222d5761222c611dd9565b5b600061223b85828601612026565b925050602061224c85828601612201565b9150509250929050565b600080fd5b7f4e487b7100000000000000000000000000000000000000000000000000000000600052604160045260246000fd5b61229382611ee4565b810181811067ffffffffffffffff821117156122b2576122b161225b565b5b80604052505050565b60006122c5611dcf565b90506122d1828261228a565b919050565b600067ffffffffffffffff8211156122f1576122f061225b565b5b6122fa82611ee4565b9050602081019050919050565b82818337600083830152505050565b6000612329612324846122d6565b6122bb565b90508281526020810184848401111561234557612344612256565b5b612350848285612307565b509392505050565b600082601f83011261236d5761236c6120ce565b5b813561237d848260208601612316565b91505092915050565b600080600080608085870312156123a05761239f611dd9565b5b60006123ae87828801612026565b94505060206123bf87828801612026565b93505060406123d087828801611f71565b925050606085013567ffffffffffffffff8111156123f1576123f0611dde565b5b6123fd87828801612358565b91505092959194509250565b600080604083850312156124205761241f611dd9565b5b600061242e85828601612026565b925050602061243f85828601612026565b9150509250929050565b7f4e487b7100000000000000000000000000000000000000000000000000000000600052602260045260246000fd5b6000600282049050600182168061249057607f821691505b6020821081036124a3576124a2612449565b5b50919050565b60006060820190506124be6000830186611fe5565b6124cb6020830185612193565b6124d86040830184611fe5565b949350505050565b7f4e487b7100000000000000000000000000000000000000000000000000000000600052601160045260246000fd5b600061251a82611f50565b91507fffffffffffffffffffffffffffffffffffffffffffffffffffffffffffffffff820361254c5761254b6124e0565b5b600182019050919050565b60006125638385611ea9565b9350612570838584612307565b61257983611ee4565b840190509392505050565b6000602082019050818103600083015261259f818486612557565b90509392505050565b7f4e6f7420617070726f766564206f72206f776e65720000000000000000000000600082015250565b60006125de601583611ea9565b91506125e9826125a8565b602082019050919050565b6000602082019050818103600083015261260d816125d1565b9050919050565b600081905092915050565b600061262a82611e9e565b6126348185612614565b9350612644818560208601611eba565b80840191505092915050565b600061265c828561261f565b9150612668828461261f565b91508190509392505050565b60008190508160005260206000209050919050565b60006020601f8301049050919050565b600082821b905092915050565b6000600883026126d67fffffffffffffffffffffffffffffffffffffffffffffffffffffffffffffffff82612699565b6126e08683612699565b95508019841693508086168417925050509392505050565b6000819050919050565b600061271d61271861271384611f50565b6126f8565b611f50565b9050919050565b6000819050919050565b61273783612702565b61274b61274382612724565b8484546126a6565b825550505050565b600090565b612760612753565b61276b81848461272e565b505050565b5b8181101561278f57612784600082612758565b600181019050612771565b5050565b601f8211156127d4576127a581612674565b6127ae84612689565b810160208510156127bd578190505b6127d16127c985612689565b830182612770565b50505b505050565b600082821c905092915050565b60006127f7600019846008026127d9565b1980831691505092915050565b600061281083836127e6565b9150826002028217905092915050565b61282982611e9e565b67ffffffffffffffff8111156128425761284161225b565b5b61284c8254612478565b612857828285612793565b600060209050601f83116001811461288a5760008415612878578287015190505b6128828582612804565b8655506128ea565b601f19841661289886612674565b60005b828110156128c05784890151825560018201915060208501945060208101905061289b565b868310156128dd57848901516128d9601f8916826127e6565b8355505b6001600288020188555050505b505050505050565b600081519050919050565b600082825260208201905092915050565b6000612919826128f2565b61292381856128fd565b9350612933818560208601611eba565b61293c81611ee4565b840191505092915050565b600060808201905061295c6000830187611fe5565b6129696020830186611fe5565b6129766040830185612193565b8181036060830152612988818461290e565b905095945050505050565b6000815190506129a281611e0f565b92915050565b6000602082840312156129be576129bd611dd9565b5b60006129cc84828501612993565b91505092915050565b60006040820190506129ea6000830185611fe5565b6129f76020830184612193565b9392505050565b7f4e487b7100000000000000000000000000000000000000000000000000000000600052601260045260246000fdfea264697066735822122078bd9fbd9722bdf9b3a33b8ca2b357d69802a5a466e93ee8f2e73dac3904bbb364736f6c634300081c0033",
  "linkReferences": {},
  "deployedLinkReferences": {}
}